{
  "contractName": "Raffle",
  "abi": [
    {
      "inputs": [],
      "payable": false,
      "stateMutability": "nonpayable",
      "type": "constructor"
    },
    {
      "constant": true,
      "inputs": [
        {
          "internalType": "address",
          "name": "",
          "type": "address"
        }
      ],
      "name": "entrants",
      "outputs": [
        {
          "internalType": "bool",
          "name": "",
          "type": "bool"
        }
      ],
      "payable": false,
      "stateMutability": "view",
      "type": "function"
    },
    {
      "constant": true,
      "inputs": [
        {
          "internalType": "address",
          "name": "",
          "type": "address"
        }
      ],
      "name": "winners",
      "outputs": [
        {
          "internalType": "bool",
          "name": "",
          "type": "bool"
        }
      ],
      "payable": false,
      "stateMutability": "view",
      "type": "function"
    },
    {
      "constant": false,
      "inputs": [],
      "name": "claimTicket",
      "outputs": [
        {
          "internalType": "bool",
          "name": "",
          "type": "bool"
        }
      ],
      "payable": false,
      "stateMutability": "nonpayable",
      "type": "function"
    },
    {
      "constant": false,
      "inputs": [],
      "name": "raffle",
      "outputs": [
        {
          "internalType": "bool",
          "name": "",
          "type": "bool"
        }
      ],
      "payable": false,
      "stateMutability": "nonpayable",
      "type": "function"
    },
    {
      "constant": false,
      "inputs": [],
      "name": "mint",
      "outputs": [
        {
          "internalType": "bool",
          "name": "",
          "type": "bool"
        }
      ],
      "payable": true,
      "stateMutability": "payable",
      "type": "function"
    }
  ],
  "bytecode": "0x608060405234801561001057600080fd5b50336000806101000a81548173ffffffffffffffffffffffffffffffffffffffff021916908373ffffffffffffffffffffffffffffffffffffffff16021790555061033d806100606000396000f3fe60806040526004361061004a5760003560e01c80631249c58b1461004f57806333c1420a146100715780636bd5450a146100a05780639aa96c3d146101095780639c84e6f214610172575b600080fd5b6100576101a1565b604051808215151515815260200191505060405180910390f35b34801561007d57600080fd5b506100866101aa565b604051808215151515815260200191505060405180910390f35b3480156100ac57600080fd5b506100ef600480360360208110156100c357600080fd5b81019080803573ffffffffffffffffffffffffffffffffffffffff16906020019092919050505061020c565b604051808215151515815260200191505060405180910390f35b34801561011557600080fd5b506101586004803603602081101561012c57600080fd5b81019080803573ffffffffffffffffffffffffffffffffffffffff16906020019092919050505061022c565b604051808215151515815260200191505060405180910390f35b34801561017e57600080fd5b5061018761024c565b604051808215151515815260200191505060405180910390f35b60006001905090565b60008060009054906101000a900473ffffffffffffffffffffffffffffffffffffffff1673ffffffffffffffffffffffffffffffffffffffff163373ffffffffffffffffffffffffffffffffffffffff161461020557600080fd5b6001905090565b60026020528060005260406000206000915054906101000a900460ff1681565b60016020528060005260406000206000915054906101000a900460ff1681565b60003360011515600160008373ffffffffffffffffffffffffffffffffffffffff1673ffffffffffffffffffffffffffffffffffffffff16815260200190815260200160002060009054906101000a900460ff16151514156102ad57600080fd5b60018060003373ffffffffffffffffffffffffffffffffffffffff1673ffffffffffffffffffffffffffffffffffffffff16815260200190815260200160002060006101000a81548160ff021916908315150217905550509056fea265627a7a72315820acff1436a8cca0bfa742277e3c3aec0e74011995f4ec2ddc56776605b76dcfe064736f6c63430005100032",
  "source": "// SPDX-License-Identifier: MIT\npragma solidity >=0.4.22 <0.9.0;\n\ncontract Raffle {\n\n  address payable owner;\n  \n  mapping(address => bool) public entrants;\n\n  mapping(address => bool) public winners;\n\n\n  constructor() public {\n    owner = msg.sender;\n  }\n  \n  // does nothing for now, could have checks on address used.\n  modifier entrantValid(address _entrant) {\n    require(entrants[_entrant] != true);\n    _;\n  }\n\n  modifier onlyOwner {\n      require(msg.sender == owner);\n      _;\n   }\n\n  // sign a message or something, need this to be easy and cheap.\n  function claimTicket() public  entrantValid(msg.sender) returns (bool) {\n    entrants[msg.sender] = true;\n  }\n\n  // run the raffle. Use Chainlinks' RNG provider.\n  function raffle() public onlyOwner() returns (bool) {\n    return true;\n  }\n\n  // mint one of the NFTs\n  function mint() public payable returns (bool) {\n    return true;\n  }\n}\n",
  "sourcePath": "/Users/will/Dev/blockchain_course/blockchain-developer-bootcamp-final-project/contracts/Raffle.sol",
  "compiler": {
    "name": "solc",
    "version": "0.5.16+commit.9c3226ce.Emscripten.clang"
  },
  "schemaVersion": "3.4.3",
  "updatedAt": "2021-11-17T04:22:19.061Z",
  "networkType": "ethereum",
  "devdoc": {
    "methods": {}
  },
  "userdoc": {
    "methods": {}
  }
}