{
  "contractName": "Raffle",
  "abi": [
    {
      "inputs": [],
      "stateMutability": "nonpayable",
      "type": "constructor"
    },
    {
      "anonymous": false,
      "inputs": [
        {
          "indexed": true,
          "internalType": "address",
          "name": "previousOwner",
          "type": "address"
        },
        {
          "indexed": true,
          "internalType": "address",
          "name": "newOwner",
          "type": "address"
        }
      ],
      "name": "OwnershipTransferred",
      "type": "event"
    },
    {
      "anonymous": false,
      "inputs": [
        {
          "indexed": false,
          "internalType": "bytes32",
          "name": "requestId",
          "type": "bytes32"
        }
      ],
      "name": "RaffleInProgess",
      "type": "event"
    },
    {
      "anonymous": false,
      "inputs": [
        {
          "indexed": false,
          "internalType": "bytes32",
          "name": "requestId",
          "type": "bytes32"
        },
        {
          "indexed": false,
          "internalType": "address",
          "name": "winner",
          "type": "address"
        }
      ],
      "name": "RaffleWinnerChosen",
      "type": "event"
    },
    {
      "inputs": [],
      "name": "owner",
      "outputs": [
        {
          "internalType": "address",
          "name": "",
          "type": "address"
        }
      ],
      "stateMutability": "view",
      "type": "function",
      "constant": true
    },
    {
      "inputs": [
        {
          "internalType": "bytes32",
          "name": "requestId",
          "type": "bytes32"
        },
        {
          "internalType": "uint256",
          "name": "randomness",
          "type": "uint256"
        }
      ],
      "name": "rawFulfillRandomness",
      "outputs": [],
      "stateMutability": "nonpayable",
      "type": "function"
    },
    {
      "inputs": [],
      "name": "renounceOwnership",
      "outputs": [],
      "stateMutability": "nonpayable",
      "type": "function"
    },
    {
      "inputs": [
        {
          "internalType": "address",
          "name": "newOwner",
          "type": "address"
        }
      ],
      "name": "transferOwnership",
      "outputs": [],
      "stateMutability": "nonpayable",
      "type": "function"
    },
    {
      "inputs": [],
      "name": "winner",
      "outputs": [
        {
          "internalType": "address",
          "name": "",
          "type": "address"
        }
      ],
      "stateMutability": "view",
      "type": "function",
      "constant": true
    },
    {
      "inputs": [],
      "name": "getRaffleWinner",
      "outputs": [
        {
          "internalType": "bytes32",
          "name": "requestId",
          "type": "bytes32"
        }
      ],
      "stateMutability": "nonpayable",
      "type": "function"
    },
    {
      "inputs": [],
      "name": "withdrawLink",
      "outputs": [],
      "stateMutability": "nonpayable",
      "type": "function"
    },
    {
      "inputs": [],
      "name": "linkBalance",
      "outputs": [
        {
          "internalType": "uint256",
          "name": "balance",
          "type": "uint256"
        }
      ],
      "stateMutability": "view",
      "type": "function",
      "constant": true
    },
    {
      "inputs": [],
      "name": "claimTicket",
      "outputs": [],
      "stateMutability": "nonpayable",
      "type": "function"
    },
    {
      "inputs": [],
      "name": "ticketsSold",
      "outputs": [
        {
          "internalType": "uint256",
          "name": "",
          "type": "uint256"
        }
      ],
      "stateMutability": "view",
      "type": "function",
      "constant": true
    },
    {
      "inputs": [],
      "name": "resetRaffle",
      "outputs": [],
      "stateMutability": "nonpayable",
      "type": "function"
    },
    {
      "inputs": [
        {
          "internalType": "address",
          "name": "entrant",
          "type": "address"
        }
      ],
      "name": "entrantInRaffle",
      "outputs": [
        {
          "internalType": "bool",
          "name": "",
          "type": "bool"
        }
      ],
      "stateMutability": "view",
      "type": "function",
      "constant": true
    },
    {
      "inputs": [],
      "name": "claimPrize",
      "outputs": [
        {
          "internalType": "bool",
          "name": "",
          "type": "bool"
        }
      ],
      "stateMutability": "view",
      "type": "function",
      "constant": true
    }
  ],
  "bytecode": "0x60c06040527301be23585060835e02b77ef475b0cc51aa1e0709600260006101000a81548173ffffffffffffffffffffffffffffffffffffffff021916908373ffffffffffffffffffffffffffffffffffffffff16021790555073b3dccb4cf7a26f6cf6b120cf5a73875b7bbc655b600360006101000a81548173ffffffffffffffffffffffffffffffffffffffff021916908373ffffffffffffffffffffffffffffffffffffffff1602179055507f2ed0feb3e7fd2022120aa84fab1945545a9f2ffc9076fd6156fa96eaff4c131160001b60045567016345785d8a00006005553480156100ed57600080fd5b50600360009054906101000a900473ffffffffffffffffffffffffffffffffffffffff16600260009054906101000a900473ffffffffffffffffffffffffffffffffffffffff166101506101456101bf60201b60201c565b6101c760201b60201c565b8173ffffffffffffffffffffffffffffffffffffffff1660a08173ffffffffffffffffffffffffffffffffffffffff16815250508073ffffffffffffffffffffffffffffffffffffffff1660808173ffffffffffffffffffffffffffffffffffffffff1681525050505061028b565b600033905090565b60008060009054906101000a900473ffffffffffffffffffffffffffffffffffffffff169050816000806101000a81548173ffffffffffffffffffffffffffffffffffffffff021916908373ffffffffffffffffffffffffffffffffffffffff1602179055508173ffffffffffffffffffffffffffffffffffffffff168173ffffffffffffffffffffffffffffffffffffffff167f8be0079c531659141344cd1fd0a4f28419497f9722a3daafe3b4186f6b6457e060405160405180910390a35050565b60805160a0516119716102d3600039600081816109240152610d180152600081816102e4015281816107d90152818161087501528181610b150152610cdc01526119716000f3fe608060405234801561001057600080fd5b50600436106100cf5760003560e01c80638dc654a21161008c5780639c84e6f2116100665780639c84e6f2146101b6578063c26ecefa146101c0578063dfbf53ae146101de578063f2fde38b146101fc576100cf565b80638dc654a2146101725780638f15024f1461017c57806394985ddd1461019a576100cf565b80631bb764e5146100d4578063616f4abf146100f25780636d99f6521461012257806370740ac91461012c578063715018a61461014a5780638da5cb5b14610154575b600080fd5b6100dc610218565b6040516100e991906110a8565b60405180910390f35b61010c60048036038101906101079190611126565b610407565b604051610119919061116e565b60405180910390f35b61012a61045d565b005b6101346105e5565b604051610141919061116e565b60405180910390f35b6101526106a8565b005b61015c610730565b6040516101699190611198565b60405180910390f35b61017a610759565b005b610184610915565b60405161019191906111cc565b60405180910390f35b6101b460048036038101906101af919061123f565b610922565b005b6101be6109be565b005b6101c8610b11565b6040516101d591906111cc565b60405180910390f35b6101e6610bb2565b6040516101f39190611198565b60405180910390f35b61021660048036038101906102119190611126565b610bd8565b005b6000610222610cd0565b73ffffffffffffffffffffffffffffffffffffffff16610240610730565b73ffffffffffffffffffffffffffffffffffffffff1614610296576040517f08c379a000000000000000000000000000000000000000000000000000000000815260040161028d906112dc565b60405180910390fd5b600160078054905010156102df576040517f08c379a00000000000000000000000000000000000000000000000000000000081526004016102d690611348565b60405180910390fd5b6005547f000000000000000000000000000000000000000000000000000000000000000073ffffffffffffffffffffffffffffffffffffffff166370a08231306040518263ffffffff1660e01b815260040161033b9190611198565b602060405180830381865afa158015610358573d6000803e3d6000fd5b505050506040513d601f19601f8201168201806040525081019061037c919061137d565b10156103bd576040517f08c379a00000000000000000000000000000000000000000000000000000000081526004016103b4906113f6565b60405180910390fd5b6103cb600454600554610cd8565b90507f497c0b6d87b82025f0247dc329f1d41ff147b4b900161b2bbdaa924ffe25919a816040516103fc91906110a8565b60405180910390a190565b6000600660008373ffffffffffffffffffffffffffffffffffffffff1673ffffffffffffffffffffffffffffffffffffffff16815260200190815260200160002060009054906101000a900460ff169050919050565b610465610cd0565b73ffffffffffffffffffffffffffffffffffffffff16610483610730565b73ffffffffffffffffffffffffffffffffffffffff16146104d9576040517f08c379a00000000000000000000000000000000000000000000000000000000081526004016104d0906112dc565b60405180910390fd5b60005b600780549050811015610592576000600660006007848154811061050357610502611416565b5b9060005260206000200160009054906101000a900473ffffffffffffffffffffffffffffffffffffffff1673ffffffffffffffffffffffffffffffffffffffff1673ffffffffffffffffffffffffffffffffffffffff16815260200190815260200160002060006101000a81548160ff021916908315150217905550808061058a90611474565b9150506104dc565b50600760006105a19190611051565b6000600860006101000a81548173ffffffffffffffffffffffffffffffffffffffff021916908373ffffffffffffffffffffffffffffffffffffffff160217905550565b60008073ffffffffffffffffffffffffffffffffffffffff16600860009054906101000a900473ffffffffffffffffffffffffffffffffffffffff1673ffffffffffffffffffffffffffffffffffffffff16141580156106925750600860009054906101000a900473ffffffffffffffffffffffffffffffffffffffff1673ffffffffffffffffffffffffffffffffffffffff163373ffffffffffffffffffffffffffffffffffffffff16145b156106a057600190506106a5565b600090505b90565b6106b0610cd0565b73ffffffffffffffffffffffffffffffffffffffff166106ce610730565b73ffffffffffffffffffffffffffffffffffffffff1614610724576040517f08c379a000000000000000000000000000000000000000000000000000000000815260040161071b906112dc565b60405180910390fd5b61072e6000610e2a565b565b60008060009054906101000a900473ffffffffffffffffffffffffffffffffffffffff16905090565b610761610cd0565b73ffffffffffffffffffffffffffffffffffffffff1661077f610730565b73ffffffffffffffffffffffffffffffffffffffff16146107d5576040517f08c379a00000000000000000000000000000000000000000000000000000000081526004016107cc906112dc565b60405180910390fd5b60007f000000000000000000000000000000000000000000000000000000000000000073ffffffffffffffffffffffffffffffffffffffff166370a08231306040518263ffffffff1660e01b81526004016108309190611198565b602060405180830381865afa15801561084d573d6000803e3d6000fd5b505050506040513d601f19601f82011682018060405250810190610871919061137d565b90507f000000000000000000000000000000000000000000000000000000000000000073ffffffffffffffffffffffffffffffffffffffff1663a9059cbb33836040518363ffffffff1660e01b81526004016108ce9291906114bd565b6020604051808303816000875af11580156108ed573d6000803e3d6000fd5b505050506040513d601f19601f820116820180604052508101906109119190611512565b5050565b6000600780549050905090565b7f000000000000000000000000000000000000000000000000000000000000000073ffffffffffffffffffffffffffffffffffffffff163373ffffffffffffffffffffffffffffffffffffffff16146109b0576040517f08c379a00000000000000000000000000000000000000000000000000000000081526004016109a79061158b565b60405180910390fd5b6109ba8282610eee565b5050565b3360011515600660008373ffffffffffffffffffffffffffffffffffffffff1673ffffffffffffffffffffffffffffffffffffffff16815260200190815260200160002060009054906101000a900460ff1615151415610a53576040517f08c379a0000000000000000000000000000000000000000000000000000000008152600401610a4a906115f7565b60405180910390fd5b6001600660003373ffffffffffffffffffffffffffffffffffffffff1673ffffffffffffffffffffffffffffffffffffffff16815260200190815260200160002060006101000a81548160ff0219169083151502179055506007339080600181540180825580915050600190039060005260206000200160009091909190916101000a81548173ffffffffffffffffffffffffffffffffffffffff021916908373ffffffffffffffffffffffffffffffffffffffff16021790555050565b60007f000000000000000000000000000000000000000000000000000000000000000073ffffffffffffffffffffffffffffffffffffffff166370a08231306040518263ffffffff1660e01b8152600401610b6c9190611198565b602060405180830381865afa158015610b89573d6000803e3d6000fd5b505050506040513d601f19601f82011682018060405250810190610bad919061137d565b905090565b600860009054906101000a900473ffffffffffffffffffffffffffffffffffffffff1681565b610be0610cd0565b73ffffffffffffffffffffffffffffffffffffffff16610bfe610730565b73ffffffffffffffffffffffffffffffffffffffff1614610c54576040517f08c379a0000000000000000000000000000000000000000000000000000000008152600401610c4b906112dc565b60405180910390fd5b600073ffffffffffffffffffffffffffffffffffffffff168173ffffffffffffffffffffffffffffffffffffffff161415610cc4576040517f08c379a0000000000000000000000000000000000000000000000000000000008152600401610cbb90611689565b60405180910390fd5b610ccd81610e2a565b50565b600033905090565b60007f000000000000000000000000000000000000000000000000000000000000000073ffffffffffffffffffffffffffffffffffffffff16634000aea07f000000000000000000000000000000000000000000000000000000000000000084866000604051602001610d4c9291906116a9565b6040516020818303038152906040526040518463ffffffff1660e01b8152600401610d799392919061176b565b6020604051808303816000875af1158015610d98573d6000803e3d6000fd5b505050506040513d601f19601f82011682018060405250810190610dbc9190611512565b506000610ddf846000306001600089815260200190815260200160002054610fe2565b9050600180600086815260200190815260200160002054610e0091906117a9565b6001600086815260200190815260200160002081905550610e21848261101e565b91505092915050565b60008060009054906101000a900473ffffffffffffffffffffffffffffffffffffffff169050816000806101000a81548173ffffffffffffffffffffffffffffffffffffffff021916908373ffffffffffffffffffffffffffffffffffffffff1602179055508173ffffffffffffffffffffffffffffffffffffffff168173ffffffffffffffffffffffffffffffffffffffff167f8be0079c531659141344cd1fd0a4f28419497f9722a3daafe3b4186f6b6457e060405160405180910390a35050565b600060078054905082610f01919061182e565b905060078181548110610f1757610f16611416565b5b9060005260206000200160009054906101000a900473ffffffffffffffffffffffffffffffffffffffff16600860006101000a81548173ffffffffffffffffffffffffffffffffffffffff021916908373ffffffffffffffffffffffffffffffffffffffff1602179055507fcd82c687de3896116ee05479477948e539ae4eec9e5b62c290926aebe911564683600860009054906101000a900473ffffffffffffffffffffffffffffffffffffffff16604051610fd592919061185f565b60405180910390a1505050565b600084848484604051602001610ffb9493929190611888565b6040516020818303038152906040528051906020012060001c9050949350505050565b6000828260405160200161103392919061190f565b60405160208183030381529060405280519060200120905092915050565b508054600082559060005260206000209081019061106f9190611072565b50565b5b8082111561108b576000816000905550600101611073565b5090565b6000819050919050565b6110a28161108f565b82525050565b60006020820190506110bd6000830184611099565b92915050565b600080fd5b600073ffffffffffffffffffffffffffffffffffffffff82169050919050565b60006110f3826110c8565b9050919050565b611103816110e8565b811461110e57600080fd5b50565b600081359050611120816110fa565b92915050565b60006020828403121561113c5761113b6110c3565b5b600061114a84828501611111565b91505092915050565b60008115159050919050565b61116881611153565b82525050565b6000602082019050611183600083018461115f565b92915050565b611192816110e8565b82525050565b60006020820190506111ad6000830184611189565b92915050565b6000819050919050565b6111c6816111b3565b82525050565b60006020820190506111e160008301846111bd565b92915050565b6111f08161108f565b81146111fb57600080fd5b50565b60008135905061120d816111e7565b92915050565b61121c816111b3565b811461122757600080fd5b50565b60008135905061123981611213565b92915050565b60008060408385031215611256576112556110c3565b5b6000611264858286016111fe565b92505060206112758582860161122a565b9150509250929050565b600082825260208201905092915050565b7f4f776e61626c653a2063616c6c6572206973206e6f7420746865206f776e6572600082015250565b60006112c660208361127f565b91506112d182611290565b602082019050919050565b600060208201905081810360008301526112f5816112b9565b9050919050565b7f4e656564206174206c65617374206f6e6520656e7472616e7400000000000000600082015250565b600061133260198361127f565b915061133d826112fc565b602082019050919050565b6000602082019050818103600083015261136181611325565b9050919050565b60008151905061137781611213565b92915050565b600060208284031215611393576113926110c3565b5b60006113a184828501611368565b91505092915050565b7f4e6f7420656e6f756768204c494e4b0000000000000000000000000000000000600082015250565b60006113e0600f8361127f565b91506113eb826113aa565b602082019050919050565b6000602082019050818103600083015261140f816113d3565b9050919050565b7f4e487b7100000000000000000000000000000000000000000000000000000000600052603260045260246000fd5b7f4e487b7100000000000000000000000000000000000000000000000000000000600052601160045260246000fd5b600061147f826111b3565b91507fffffffffffffffffffffffffffffffffffffffffffffffffffffffffffffffff8214156114b2576114b1611445565b5b600182019050919050565b60006040820190506114d26000830185611189565b6114df60208301846111bd565b9392505050565b6114ef81611153565b81146114fa57600080fd5b50565b60008151905061150c816114e6565b92915050565b600060208284031215611528576115276110c3565b5b6000611536848285016114fd565b91505092915050565b7f4f6e6c7920565246436f6f7264696e61746f722063616e2066756c66696c6c00600082015250565b6000611575601f8361127f565b91506115808261153f565b602082019050919050565b600060208201905081810360008301526115a481611568565b9050919050565b7f4f6e6c79206f6e6520656e747279207065722061646472657373000000000000600082015250565b60006115e1601a8361127f565b91506115ec826115ab565b602082019050919050565b60006020820190508181036000830152611610816115d4565b9050919050565b7f4f776e61626c653a206e6577206f776e657220697320746865207a65726f206160008201527f6464726573730000000000000000000000000000000000000000000000000000602082015250565b600061167360268361127f565b915061167e82611617565b604082019050919050565b600060208201905081810360008301526116a281611666565b9050919050565b60006040820190506116be6000830185611099565b6116cb60208301846111bd565b9392505050565b600081519050919050565b600082825260208201905092915050565b60005b8381101561170c5780820151818401526020810190506116f1565b8381111561171b576000848401525b50505050565b6000601f19601f8301169050919050565b600061173d826116d2565b61174781856116dd565b93506117578185602086016116ee565b61176081611721565b840191505092915050565b60006060820190506117806000830186611189565b61178d60208301856111bd565b818103604083015261179f8184611732565b9050949350505050565b60006117b4826111b3565b91506117bf836111b3565b9250827fffffffffffffffffffffffffffffffffffffffffffffffffffffffffffffffff038211156117f4576117f3611445565b5b828201905092915050565b7f4e487b7100000000000000000000000000000000000000000000000000000000600052601260045260246000fd5b6000611839826111b3565b9150611844836111b3565b925082611854576118536117ff565b5b828206905092915050565b60006040820190506118746000830185611099565b6118816020830184611189565b9392505050565b600060808201905061189d6000830187611099565b6118aa60208301866111bd565b6118b76040830185611189565b6118c460608301846111bd565b95945050505050565b6000819050919050565b6118e86118e38261108f565b6118cd565b82525050565b6000819050919050565b611909611904826111b3565b6118ee565b82525050565b600061191b82856118d7565b60208201915061192b82846118f8565b602082019150819050939250505056fea2646970667358221220958398035f1340af7ee05eb8e4b1cc0c518377c32de1f8e79fc89cb7ac3d136064736f6c634300080a0033",
  "immutableReferences": {
    "73": [
      {
        "length": 32,
        "start": 740
      },
      {
        "length": 32,
        "start": 2009
      },
      {
        "length": 32,
        "start": 2165
      },
      {
        "length": 32,
        "start": 2837
      },
      {
        "length": 32,
        "start": 3292
      }
    ],
    "75": [
      {
        "length": 32,
        "start": 2340
      },
      {
        "length": 32,
        "start": 3352
      }
    ]
  },
  "source": "// SPDX-License-Identifier: MIT\npragma solidity 0.8.10;\n\nimport \"@openzeppelin/contracts/access/Ownable.sol\";\nimport \"@chainlink/contracts/src/v0.8/VRFConsumerBase.sol\";\n\n/// @title A Raffle contract for allocating prizes.\n/// @author William P. Grant\n/// This randomly chooses a winner, but doesn't currently give the winner anything, and is bottable.\n/// @dev Contract must be funded with LINK to function (use the Rinkeby faucet).\ncontract Raffle is Ownable, VRFConsumerBase {\n    // used by the chainlink VRF (below is true only for Rinkeby)\n    address internal linkToken = 0x01BE23585060835E02B77ef475b0Cc51aA1e0709;\n    address internal vrfCoordinator =\n        0xb3dCcb4Cf7a26f6cf6B120Cf5A73875B7BBc655B;\n    bytes32 internal keyHash =\n        0x2ed0feb3e7fd2022120aa84fab1945545a9f2ffc9076fd6156fa96eaff4c1311;\n    uint256 internal fee = 0.1 * 10**18;\n\n    mapping(address => bool) internal entrants;\n    address[] internal entrants_array;\n\n    /// @dev N.B this is uninitialised until a winner is chosen. Should always be in entrants and entrants_array.\n    address public winner;\n\n    /// Emitted once the random number has been requested from the external oracle.\n    /// @param requestId Used internally by the oracle.\n    event RaffleInProgess(bytes32 requestId);\n\n    /// Emitted once the random number has been received and used to choose a winner.\n    /// @param requestId Used internally by the oracle.\n    /// @param winner The address of the winner of the raffle.\n    event RaffleWinnerChosen(bytes32 requestId, address winner);\n\n    /// Initialises the contract with hardcoded Rinkeby VRF info.\n    constructor()\n        VRFConsumerBase(\n            vrfCoordinator, // VRF Coordinator\n            linkToken // LINK Token\n        )\n    {}\n\n    /// Requests the random number used to assign a winner, which is then\n    /// acted on by fulfillRandomness.\n    /// @return requestId The internal oracle id.\n    function getRaffleWinner() public onlyOwner returns (bytes32 requestId) {\n        require(entrants_array.length >= 1, \"Need at least one entrant\");\n        require(LINK.balanceOf(address(this)) >= fee, \"Not enough LINK\");\n        requestId = requestRandomness(keyHash, fee);\n        emit RaffleInProgess(requestId);\n    }\n\n    /// Required as part of the VRF interface. Uses the randomness from requestRandomness()\n    function fulfillRandomness(bytes32 requestId, uint256 randomness)\n        internal\n        override\n    {\n        uint256 winner_index = randomness % entrants_array.length;\n        winner = entrants_array[winner_index];\n        emit RaffleWinnerChosen(requestId, winner);\n    }\n\n    /// Utility to withdraw spare LINK.\n    function withdrawLink() public onlyOwner {\n        // return LINK to owner\n        uint256 link_balance = LINK.balanceOf(address(this));\n        LINK.transfer(msg.sender, link_balance);\n    }\n\n    /// Utility to check that the contract is funded before it's used.\n    function linkBalance() public view returns (uint256 balance) {\n        return LINK.balanceOf(address(this));\n    }\n\n    /// Enforces one raffle entry per unique address.\n    modifier entrantValid(address _entrant) {\n        require(entrants[_entrant] != true, \"Only one entry per address\");\n        _;\n    }\n\n    /// adds the message sender to the list of raffle entrants. Cost only gas.\n    function claimTicket() public entrantValid(msg.sender) {\n        entrants[msg.sender] = true;\n        entrants_array.push(msg.sender);\n    }\n\n    /// Used to display odds to the frontend.\n    function ticketsSold() public view returns (uint256) {\n        return entrants_array.length;\n    }\n\n    /// Reset the raffle, removing all entrants\n    function resetRaffle() public onlyOwner {\n        for (uint256 i = 0; i < entrants_array.length; i++) {\n            entrants[entrants_array[i]] = false;\n        }\n        delete entrants_array;\n        winner = address(0);\n    }\n\n    /// Used to check entry status on the frontend.\n    function entrantInRaffle(address entrant) public view returns (bool) {\n        return entrants[entrant];\n    }\n\n    /// Used to distinguish the winner on the frontend.\n    /// @dev This is basically a no-op currently but could be used to e.g. mint coveted NFTs.\n    function claimPrize() public view returns (bool) {\n        if (winner != address(0) && msg.sender == winner) {\n            return true;\n        } else {\n            return false;\n        }\n    }\n}\n",
  "sourcePath": "/Users/will/Dev/blockchain_course/blockchain-developer-bootcamp-final-project/contracts/Raffle.sol",
  "compiler": {
    "name": "solc",
    "version": "0.8.10+commit.fc410830.Emscripten.clang"
  },
  "schemaVersion": "3.4.3",
  "updatedAt": "2021-11-25T20:26:16.862Z",
  "networkType": "ethereum",
  "devdoc": {
    "author": "William P. Grant This randomly chooses a winner, but doesn't currently give the winner anything, and is bottable.",
    "details": "Contract must be funded with LINK to function (use the Rinkeby faucet).",
    "events": {
      "RaffleInProgess(bytes32)": {
        "params": {
          "requestId": "Used internally by the oracle."
        }
      },
      "RaffleWinnerChosen(bytes32,address)": {
        "params": {
          "requestId": "Used internally by the oracle.",
          "winner": "The address of the winner of the raffle."
        }
      }
    },
    "kind": "dev",
    "methods": {
      "claimPrize()": {
        "details": "This is basically a no-op currently but could be used to e.g. mint coveted NFTs."
      },
      "getRaffleWinner()": {
        "returns": {
          "requestId": "The internal oracle id."
        }
      },
      "owner()": {
        "details": "Returns the address of the current owner."
      },
      "renounceOwnership()": {
        "details": "Leaves the contract without owner. It will not be possible to call `onlyOwner` functions anymore. Can only be called by the current owner. NOTE: Renouncing ownership will leave the contract without an owner, thereby removing any functionality that is only available to the owner."
      },
      "transferOwnership(address)": {
        "details": "Transfers ownership of the contract to a new account (`newOwner`). Can only be called by the current owner."
      }
    },
    "stateVariables": {
      "winner": {
        "details": "N.B this is uninitialised until a winner is chosen. Should always be in entrants and entrants_array."
      }
    },
    "title": "A Raffle contract for allocating prizes.",
    "version": 1
  },
  "userdoc": {
    "events": {
      "RaffleInProgess(bytes32)": {
        "notice": "Emitted once the random number has been requested from the external oracle."
      },
      "RaffleWinnerChosen(bytes32,address)": {
        "notice": "Emitted once the random number has been received and used to choose a winner."
      }
    },
    "kind": "user",
    "methods": {
      "claimPrize()": {
        "notice": "Used to distinguish the winner on the frontend."
      },
      "claimTicket()": {
        "notice": "adds the message sender to the list of raffle entrants. Cost only gas."
      },
      "constructor": {
        "notice": "Initialises the contract with hardcoded Rinkeby VRF info."
      },
      "entrantInRaffle(address)": {
        "notice": "Used to check entry status on the frontend."
      },
      "getRaffleWinner()": {
        "notice": "Requests the random number used to assign a winner, which is then acted on by fulfillRandomness."
      },
      "linkBalance()": {
        "notice": "Utility to check that the contract is funded before it's used."
      },
      "resetRaffle()": {
        "notice": "Reset the raffle, removing all entrants"
      },
      "ticketsSold()": {
        "notice": "Used to display odds to the frontend."
      },
      "withdrawLink()": {
        "notice": "Utility to withdraw spare LINK."
      }
    },
    "version": 1
  }
}