{
  "contractName": "Raffle",
  "abi": [
    {
      "inputs": [],
      "stateMutability": "nonpayable",
      "type": "constructor"
    },
    {
      "anonymous": false,
      "inputs": [
        {
          "indexed": true,
          "internalType": "address",
          "name": "previousOwner",
          "type": "address"
        },
        {
          "indexed": true,
          "internalType": "address",
          "name": "newOwner",
          "type": "address"
        }
      ],
      "name": "OwnershipTransferred",
      "type": "event"
    },
    {
      "anonymous": false,
      "inputs": [
        {
          "indexed": false,
          "internalType": "bytes32",
          "name": "requestId",
          "type": "bytes32"
        }
      ],
      "name": "RaffleInProgess",
      "type": "event"
    },
    {
      "anonymous": false,
      "inputs": [
        {
          "indexed": false,
          "internalType": "bytes32",
          "name": "requestId",
          "type": "bytes32"
        },
        {
          "indexed": false,
          "internalType": "address",
          "name": "winner",
          "type": "address"
        }
      ],
      "name": "RaffleWinnerChosen",
      "type": "event"
    },
    {
      "inputs": [],
      "name": "owner",
      "outputs": [
        {
          "internalType": "address",
          "name": "",
          "type": "address"
        }
      ],
      "stateMutability": "view",
      "type": "function"
    },
    {
      "inputs": [
        {
          "internalType": "bytes32",
          "name": "requestId",
          "type": "bytes32"
        },
        {
          "internalType": "uint256",
          "name": "randomness",
          "type": "uint256"
        }
      ],
      "name": "rawFulfillRandomness",
      "outputs": [],
      "stateMutability": "nonpayable",
      "type": "function"
    },
    {
      "inputs": [],
      "name": "renounceOwnership",
      "outputs": [],
      "stateMutability": "nonpayable",
      "type": "function"
    },
    {
      "inputs": [
        {
          "internalType": "address",
          "name": "newOwner",
          "type": "address"
        }
      ],
      "name": "transferOwnership",
      "outputs": [],
      "stateMutability": "nonpayable",
      "type": "function"
    },
    {
      "inputs": [],
      "name": "winner",
      "outputs": [
        {
          "internalType": "address",
          "name": "",
          "type": "address"
        }
      ],
      "stateMutability": "view",
      "type": "function"
    },
    {
      "inputs": [],
      "name": "getRaffleWinner",
      "outputs": [
        {
          "internalType": "bytes32",
          "name": "requestId",
          "type": "bytes32"
        }
      ],
      "stateMutability": "nonpayable",
      "type": "function"
    },
    {
      "inputs": [],
      "name": "withdrawLink",
      "outputs": [],
      "stateMutability": "nonpayable",
      "type": "function"
    },
    {
      "inputs": [],
      "name": "linkBalance",
      "outputs": [
        {
          "internalType": "uint256",
          "name": "balance",
          "type": "uint256"
        }
      ],
      "stateMutability": "view",
      "type": "function"
    },
    {
      "inputs": [],
      "name": "claimTicket",
      "outputs": [],
      "stateMutability": "nonpayable",
      "type": "function"
    },
    {
      "inputs": [],
      "name": "ticketsSold",
      "outputs": [
        {
          "internalType": "uint256",
          "name": "",
          "type": "uint256"
        }
      ],
      "stateMutability": "view",
      "type": "function"
    },
    {
      "inputs": [],
      "name": "entrantInRaffle",
      "outputs": [
        {
          "internalType": "bool",
          "name": "",
          "type": "bool"
        }
      ],
      "stateMutability": "view",
      "type": "function"
    },
    {
      "inputs": [],
      "name": "claimPrize",
      "outputs": [
        {
          "internalType": "bool",
          "name": "",
          "type": "bool"
        }
      ],
      "stateMutability": "view",
      "type": "function"
    }
  ],
  "bytecode": "0x60c06040527301be23585060835e02b77ef475b0cc51aa1e0709600260006101000a81548173ffffffffffffffffffffffffffffffffffffffff021916908373ffffffffffffffffffffffffffffffffffffffff16021790555073b3dccb4cf7a26f6cf6b120cf5a73875b7bbc655b600360006101000a81548173ffffffffffffffffffffffffffffffffffffffff021916908373ffffffffffffffffffffffffffffffffffffffff1602179055507f2ed0feb3e7fd2022120aa84fab1945545a9f2ffc9076fd6156fa96eaff4c131160001b60045567016345785d8a00006005553480156100ed57600080fd5b50600360009054906101000a900473ffffffffffffffffffffffffffffffffffffffff16600260009054906101000a900473ffffffffffffffffffffffffffffffffffffffff166101506101456101bf60201b60201c565b6101c760201b60201c565b8173ffffffffffffffffffffffffffffffffffffffff1660a08173ffffffffffffffffffffffffffffffffffffffff16815250508073ffffffffffffffffffffffffffffffffffffffff1660808173ffffffffffffffffffffffffffffffffffffffff1681525050505061028b565b600033905090565b60008060009054906101000a900473ffffffffffffffffffffffffffffffffffffffff169050816000806101000a81548173ffffffffffffffffffffffffffffffffffffffff021916908373ffffffffffffffffffffffffffffffffffffffff1602179055508173ffffffffffffffffffffffffffffffffffffffff168173ffffffffffffffffffffffffffffffffffffffff167f8be0079c531659141344cd1fd0a4f28419497f9722a3daafe3b4186f6b6457e060405160405180910390a35050565b60805160a0516116cf6102d3600039600081816107090152610afd0152600081816102ad0152818161056a01528181610606015281816108fa0152610ac101526116cf6000f3fe608060405234801561001057600080fd5b50600436106100b45760003560e01c806393c84dbd1161007157806393c84dbd1461014557806394985ddd146101635780639c84e6f21461017f578063c26ecefa14610189578063dfbf53ae146101a7578063f2fde38b146101c5576100b4565b80631bb764e5146100b957806370740ac9146100d7578063715018a6146100f55780638da5cb5b146100ff5780638dc654a21461011d5780638f15024f14610127575b600080fd5b6100c16101e1565b6040516100ce9190610e4f565b60405180910390f35b6100df6103d0565b6040516100ec9190610e85565b60405180910390f35b6100fd610439565b005b6101076104c1565b6040516101149190610ee1565b60405180910390f35b6101256104ea565b005b61012f6106a6565b60405161013c9190610f15565b60405180910390f35b61014d6106b3565b60405161015a9190610e85565b60405180910390f35b61017d60048036038101906101789190610f8d565b610707565b005b6101876107a3565b005b6101916108f6565b60405161019e9190610f15565b60405180910390f35b6101af610997565b6040516101bc9190610ee1565b60405180910390f35b6101df60048036038101906101da9190610ff9565b6109bd565b005b60006101eb610ab5565b73ffffffffffffffffffffffffffffffffffffffff166102096104c1565b73ffffffffffffffffffffffffffffffffffffffff161461025f576040517f08c379a000000000000000000000000000000000000000000000000000000000815260040161025690611083565b60405180910390fd5b600160078054905010156102a8576040517f08c379a000000000000000000000000000000000000000000000000000000000815260040161029f906110ef565b60405180910390fd5b6005547f000000000000000000000000000000000000000000000000000000000000000073ffffffffffffffffffffffffffffffffffffffff166370a08231306040518263ffffffff1660e01b81526004016103049190610ee1565b602060405180830381865afa158015610321573d6000803e3d6000fd5b505050506040513d601f19601f820116820180604052508101906103459190611124565b1015610386576040517f08c379a000000000000000000000000000000000000000000000000000000000815260040161037d9061119d565b60405180910390fd5b610394600454600554610abd565b90507f497c0b6d87b82025f0247dc329f1d41ff147b4b900161b2bbdaa924ffe25919a816040516103c59190610e4f565b60405180910390a190565b6000600860009054906101000a900473ffffffffffffffffffffffffffffffffffffffff1673ffffffffffffffffffffffffffffffffffffffff163373ffffffffffffffffffffffffffffffffffffffff1614156104315760019050610436565b600090505b90565b610441610ab5565b73ffffffffffffffffffffffffffffffffffffffff1661045f6104c1565b73ffffffffffffffffffffffffffffffffffffffff16146104b5576040517f08c379a00000000000000000000000000000000000000000000000000000000081526004016104ac90611083565b60405180910390fd5b6104bf6000610c0f565b565b60008060009054906101000a900473ffffffffffffffffffffffffffffffffffffffff16905090565b6104f2610ab5565b73ffffffffffffffffffffffffffffffffffffffff166105106104c1565b73ffffffffffffffffffffffffffffffffffffffff1614610566576040517f08c379a000000000000000000000000000000000000000000000000000000000815260040161055d90611083565b60405180910390fd5b60007f000000000000000000000000000000000000000000000000000000000000000073ffffffffffffffffffffffffffffffffffffffff166370a08231306040518263ffffffff1660e01b81526004016105c19190610ee1565b602060405180830381865afa1580156105de573d6000803e3d6000fd5b505050506040513d601f19601f820116820180604052508101906106029190611124565b90507f000000000000000000000000000000000000000000000000000000000000000073ffffffffffffffffffffffffffffffffffffffff1663a9059cbb33836040518363ffffffff1660e01b815260040161065f9291906111bd565b6020604051808303816000875af115801561067e573d6000803e3d6000fd5b505050506040513d601f19601f820116820180604052508101906106a29190611212565b5050565b6000600780549050905090565b6000600660003373ffffffffffffffffffffffffffffffffffffffff1673ffffffffffffffffffffffffffffffffffffffff16815260200190815260200160002060009054906101000a900460ff16905090565b7f000000000000000000000000000000000000000000000000000000000000000073ffffffffffffffffffffffffffffffffffffffff163373ffffffffffffffffffffffffffffffffffffffff1614610795576040517f08c379a000000000000000000000000000000000000000000000000000000000815260040161078c9061128b565b60405180910390fd5b61079f8282610cd3565b5050565b3360011515600660008373ffffffffffffffffffffffffffffffffffffffff1673ffffffffffffffffffffffffffffffffffffffff16815260200190815260200160002060009054906101000a900460ff1615151415610838576040517f08c379a000000000000000000000000000000000000000000000000000000000815260040161082f906112f7565b60405180910390fd5b6001600660003373ffffffffffffffffffffffffffffffffffffffff1673ffffffffffffffffffffffffffffffffffffffff16815260200190815260200160002060006101000a81548160ff0219169083151502179055506007339080600181540180825580915050600190039060005260206000200160009091909190916101000a81548173ffffffffffffffffffffffffffffffffffffffff021916908373ffffffffffffffffffffffffffffffffffffffff16021790555050565b60007f000000000000000000000000000000000000000000000000000000000000000073ffffffffffffffffffffffffffffffffffffffff166370a08231306040518263ffffffff1660e01b81526004016109519190610ee1565b602060405180830381865afa15801561096e573d6000803e3d6000fd5b505050506040513d601f19601f820116820180604052508101906109929190611124565b905090565b600860009054906101000a900473ffffffffffffffffffffffffffffffffffffffff1681565b6109c5610ab5565b73ffffffffffffffffffffffffffffffffffffffff166109e36104c1565b73ffffffffffffffffffffffffffffffffffffffff1614610a39576040517f08c379a0000000000000000000000000000000000000000000000000000000008152600401610a3090611083565b60405180910390fd5b600073ffffffffffffffffffffffffffffffffffffffff168173ffffffffffffffffffffffffffffffffffffffff161415610aa9576040517f08c379a0000000000000000000000000000000000000000000000000000000008152600401610aa090611389565b60405180910390fd5b610ab281610c0f565b50565b600033905090565b60007f000000000000000000000000000000000000000000000000000000000000000073ffffffffffffffffffffffffffffffffffffffff16634000aea07f000000000000000000000000000000000000000000000000000000000000000084866000604051602001610b319291906113a9565b6040516020818303038152906040526040518463ffffffff1660e01b8152600401610b5e9392919061146b565b6020604051808303816000875af1158015610b7d573d6000803e3d6000fd5b505050506040513d601f19601f82011682018060405250810190610ba19190611212565b506000610bc4846000306001600089815260200190815260200160002054610dc7565b9050600180600086815260200190815260200160002054610be591906114d8565b6001600086815260200190815260200160002081905550610c068482610e03565b91505092915050565b60008060009054906101000a900473ffffffffffffffffffffffffffffffffffffffff169050816000806101000a81548173ffffffffffffffffffffffffffffffffffffffff021916908373ffffffffffffffffffffffffffffffffffffffff1602179055508173ffffffffffffffffffffffffffffffffffffffff168173ffffffffffffffffffffffffffffffffffffffff167f8be0079c531659141344cd1fd0a4f28419497f9722a3daafe3b4186f6b6457e060405160405180910390a35050565b600060078054905082610ce6919061155d565b905060078181548110610cfc57610cfb61158e565b5b9060005260206000200160009054906101000a900473ffffffffffffffffffffffffffffffffffffffff16600860006101000a81548173ffffffffffffffffffffffffffffffffffffffff021916908373ffffffffffffffffffffffffffffffffffffffff1602179055507fcd82c687de3896116ee05479477948e539ae4eec9e5b62c290926aebe911564683600860009054906101000a900473ffffffffffffffffffffffffffffffffffffffff16604051610dba9291906115bd565b60405180910390a1505050565b600084848484604051602001610de094939291906115e6565b6040516020818303038152906040528051906020012060001c9050949350505050565b60008282604051602001610e1892919061166d565b60405160208183030381529060405280519060200120905092915050565b6000819050919050565b610e4981610e36565b82525050565b6000602082019050610e646000830184610e40565b92915050565b60008115159050919050565b610e7f81610e6a565b82525050565b6000602082019050610e9a6000830184610e76565b92915050565b600073ffffffffffffffffffffffffffffffffffffffff82169050919050565b6000610ecb82610ea0565b9050919050565b610edb81610ec0565b82525050565b6000602082019050610ef66000830184610ed2565b92915050565b6000819050919050565b610f0f81610efc565b82525050565b6000602082019050610f2a6000830184610f06565b92915050565b600080fd5b610f3e81610e36565b8114610f4957600080fd5b50565b600081359050610f5b81610f35565b92915050565b610f6a81610efc565b8114610f7557600080fd5b50565b600081359050610f8781610f61565b92915050565b60008060408385031215610fa457610fa3610f30565b5b6000610fb285828601610f4c565b9250506020610fc385828601610f78565b9150509250929050565b610fd681610ec0565b8114610fe157600080fd5b50565b600081359050610ff381610fcd565b92915050565b60006020828403121561100f5761100e610f30565b5b600061101d84828501610fe4565b91505092915050565b600082825260208201905092915050565b7f4f776e61626c653a2063616c6c6572206973206e6f7420746865206f776e6572600082015250565b600061106d602083611026565b915061107882611037565b602082019050919050565b6000602082019050818103600083015261109c81611060565b9050919050565b7f4e656564206174206c65617374206f6e6520656e7472616e7400000000000000600082015250565b60006110d9601983611026565b91506110e4826110a3565b602082019050919050565b60006020820190508181036000830152611108816110cc565b9050919050565b60008151905061111e81610f61565b92915050565b60006020828403121561113a57611139610f30565b5b60006111488482850161110f565b91505092915050565b7f4e6f7420656e6f756768204c494e4b0000000000000000000000000000000000600082015250565b6000611187600f83611026565b915061119282611151565b602082019050919050565b600060208201905081810360008301526111b68161117a565b9050919050565b60006040820190506111d26000830185610ed2565b6111df6020830184610f06565b9392505050565b6111ef81610e6a565b81146111fa57600080fd5b50565b60008151905061120c816111e6565b92915050565b60006020828403121561122857611227610f30565b5b6000611236848285016111fd565b91505092915050565b7f4f6e6c7920565246436f6f7264696e61746f722063616e2066756c66696c6c00600082015250565b6000611275601f83611026565b91506112808261123f565b602082019050919050565b600060208201905081810360008301526112a481611268565b9050919050565b7f4f6e6c79206f6e6520656e747279207065722061646472657373000000000000600082015250565b60006112e1601a83611026565b91506112ec826112ab565b602082019050919050565b60006020820190508181036000830152611310816112d4565b9050919050565b7f4f776e61626c653a206e6577206f776e657220697320746865207a65726f206160008201527f6464726573730000000000000000000000000000000000000000000000000000602082015250565b6000611373602683611026565b915061137e82611317565b604082019050919050565b600060208201905081810360008301526113a281611366565b9050919050565b60006040820190506113be6000830185610e40565b6113cb6020830184610f06565b9392505050565b600081519050919050565b600082825260208201905092915050565b60005b8381101561140c5780820151818401526020810190506113f1565b8381111561141b576000848401525b50505050565b6000601f19601f8301169050919050565b600061143d826113d2565b61144781856113dd565b93506114578185602086016113ee565b61146081611421565b840191505092915050565b60006060820190506114806000830186610ed2565b61148d6020830185610f06565b818103604083015261149f8184611432565b9050949350505050565b7f4e487b7100000000000000000000000000000000000000000000000000000000600052601160045260246000fd5b60006114e382610efc565b91506114ee83610efc565b9250827fffffffffffffffffffffffffffffffffffffffffffffffffffffffffffffffff03821115611523576115226114a9565b5b828201905092915050565b7f4e487b7100000000000000000000000000000000000000000000000000000000600052601260045260246000fd5b600061156882610efc565b915061157383610efc565b9250826115835761158261152e565b5b828206905092915050565b7f4e487b7100000000000000000000000000000000000000000000000000000000600052603260045260246000fd5b60006040820190506115d26000830185610e40565b6115df6020830184610ed2565b9392505050565b60006080820190506115fb6000830187610e40565b6116086020830186610f06565b6116156040830185610ed2565b6116226060830184610f06565b95945050505050565b6000819050919050565b61164661164182610e36565b61162b565b82525050565b6000819050919050565b61166761166282610efc565b61164c565b82525050565b60006116798285611635565b6020820191506116898284611656565b602082019150819050939250505056fea26469706673582212204f7d879f3419f3f8e2ca1dbd9a5dd991725bdceaffb4d81a76cccc5ba310df8064736f6c634300080a0033",
  "immutableReferences": {
    "73": [
      {
        "length": 32,
        "start": 685
      },
      {
        "length": 32,
        "start": 1386
      },
      {
        "length": 32,
        "start": 1542
      },
      {
        "length": 32,
        "start": 2298
      },
      {
        "length": 32,
        "start": 2753
      }
    ],
    "75": [
      {
        "length": 32,
        "start": 1801
      },
      {
        "length": 32,
        "start": 2813
      }
    ]
  },
  "source": "// SPDX-License-Identifier: MIT\npragma solidity 0.8.10;\n\nimport \"@openzeppelin/contracts/access/Ownable.sol\";\nimport \"@chainlink/contracts/src/v0.8/VRFConsumerBase.sol\";\n\n\n/// @title A Raffle contract for allocating prizes.\n/// @author William P. Grant\n/// This randomly chooses a winner, but doesn't currently give the winner anything, and is bottable.\n/// @dev Contract must be funded with LINK to function (use the Rinkeby faucet).\ncontract Raffle is Ownable, VRFConsumerBase {\n\n  // used by the chainlink VRF (below is true only for Rinkeby)\n  address internal linkToken = 0x01BE23585060835E02B77ef475b0Cc51aA1e0709;\n  address internal vrfCoordinator = 0xb3dCcb4Cf7a26f6cf6B120Cf5A73875B7BBc655B;\n  bytes32 internal keyHash = 0x2ed0feb3e7fd2022120aa84fab1945545a9f2ffc9076fd6156fa96eaff4c1311;\n  uint256 internal fee = 0.1 * 10 ** 18;\n\n\n  mapping(address => bool) internal entrants;\n  address[] internal entrants_array;\n\n  /// @dev N.B this is uninitialised until a winner is chosen. Should always be in entrants and entrants_array.\n  address public winner;\n\n\n  /// Emitted once the random number has been requested from the external oracle.\n  /// @param requestId Used internally by the oracle.\n  event RaffleInProgess(bytes32 requestId);\n\n  /// Emitted once the random number has been received and used to choose a winner.\n  /// @param requestId Used internally by the oracle.\n  /// @param winner The address of the winner of the raffle.\n  event RaffleWinnerChosen(bytes32 requestId, address winner);\n\n  /// Initialises the contract with hardcoded Rinkeby VRF info.\n  constructor() \n        VRFConsumerBase(\n            vrfCoordinator, // VRF Coordinator\n            linkToken  // LINK Token\n        )\n    {\n    }\n\n    /// Requests the random number used to assign a winner, which is then \n    /// acted on by fulfillRandomness.\n    /// @return requestId The internal oracle id.\n    function getRaffleWinner() public onlyOwner returns (bytes32 requestId) {\n        require(entrants_array.length >= 1, \"Need at least one entrant\");\n        require(LINK.balanceOf(address(this)) >= fee, \"Not enough LINK\");\n        requestId = requestRandomness(keyHash, fee);\n        emit RaffleInProgess(requestId);\n    }\n\n    /// Required as part of the VRF interface. Uses the randomness from requestRandomness()\n    function fulfillRandomness(bytes32 requestId, uint256 randomness) internal override {\n        uint256 winner_index = randomness % entrants_array.length;\n        winner = entrants_array[winner_index];\n        emit RaffleWinnerChosen(requestId, winner);\n    }\n\n    /// Utility to withdraw spare LINK.\n    function withdrawLink() public onlyOwner {\n        // return LINK to owner\n        uint256 link_balance = LINK.balanceOf(address(this));\n        LINK.transfer(msg.sender, link_balance);\n    }  \n\n    /// Utility to check that the contract is funded before it's used.\n    function linkBalance() public view returns (uint256 balance) {\n     return LINK.balanceOf(address(this));\n    }\n\n  /// Enforces one raffle entry per unique address.\n  modifier entrantValid(address _entrant) {\n    require(entrants[_entrant] != true, \"Only one entry per address\");\n    _;\n  }\n\n  /// adds the message sender to the list of raffle entrants. Cost only gas.\n  function claimTicket() public entrantValid(msg.sender) {\n    entrants[msg.sender] = true;\n    entrants_array.push(msg.sender);\n  }\n\n  /// Used to display odds to the frontend.\n  function ticketsSold() public view returns (uint) {\n    return entrants_array.length;\n  } \n\n  /// Used to check entry status on the frontend.\n  function entrantInRaffle() public view returns (bool) {\n    return entrants[msg.sender];\n  }\n\n  /// Used to distinguish the winner on the frontend.\n  /// @dev This is basically a no-op currently but could be used to e.g. mint coveted NFTs.\n  function claimPrize() public view returns (bool) {\n    if (msg.sender == winner) {\n      return true;\n    }\n    else {\n      return false;\n    }\n  }\n}",
  "sourcePath": "/Users/will/Dev/blockchain_course/blockchain-developer-bootcamp-final-project/contracts/Raffle.sol",
  "compiler": {
    "name": "solc",
    "version": "0.8.10+commit.fc410830.Emscripten.clang"
  },
  "schemaVersion": "3.4.3",
  "updatedAt": "2021-11-24T23:58:18.739Z",
  "devdoc": {
    "author": "William P. Grant This randomly chooses a winner, but doesn't currently give the winner anything, and is bottable.",
    "details": "Contract must be funded with LINK to function (use the Rinkeby faucet).",
    "events": {
      "RaffleInProgess(bytes32)": {
        "params": {
          "requestId": "Used internally by the oracle."
        }
      },
      "RaffleWinnerChosen(bytes32,address)": {
        "params": {
          "requestId": "Used internally by the oracle.",
          "winner": "The address of the winner of the raffle."
        }
      }
    },
    "kind": "dev",
    "methods": {
      "claimPrize()": {
        "details": "This is basically a no-op currently but could be used to e.g. mint coveted NFTs."
      },
      "getRaffleWinner()": {
        "returns": {
          "requestId": "The internal oracle id."
        }
      },
      "owner()": {
        "details": "Returns the address of the current owner."
      },
      "renounceOwnership()": {
        "details": "Leaves the contract without owner. It will not be possible to call `onlyOwner` functions anymore. Can only be called by the current owner. NOTE: Renouncing ownership will leave the contract without an owner, thereby removing any functionality that is only available to the owner."
      },
      "transferOwnership(address)": {
        "details": "Transfers ownership of the contract to a new account (`newOwner`). Can only be called by the current owner."
      }
    },
    "stateVariables": {
      "winner": {
        "details": "N.B this is uninitialised until a winner is chosen. Should always be in entrants and entrants_array."
      }
    },
    "title": "A Raffle contract for allocating prizes.",
    "version": 1
  },
  "userdoc": {
    "events": {
      "RaffleInProgess(bytes32)": {
        "notice": "Emitted once the random number has been requested from the external oracle."
      },
      "RaffleWinnerChosen(bytes32,address)": {
        "notice": "Emitted once the random number has been received and used to choose a winner."
      }
    },
    "kind": "user",
    "methods": {
      "claimPrize()": {
        "notice": "Used to distinguish the winner on the frontend."
      },
      "claimTicket()": {
        "notice": "adds the message sender to the list of raffle entrants. Cost only gas."
      },
      "constructor": {
        "notice": "Initialises the contract with hardcoded Rinkeby VRF info."
      },
      "entrantInRaffle()": {
        "notice": "Used to check entry status on the frontend."
      },
      "getRaffleWinner()": {
        "notice": "Requests the random number used to assign a winner, which is then  acted on by fulfillRandomness."
      },
      "linkBalance()": {
        "notice": "Utility to check that the contract is funded before it's used."
      },
      "ticketsSold()": {
        "notice": "Used to display odds to the frontend."
      },
      "withdrawLink()": {
        "notice": "Utility to withdraw spare LINK."
      }
    },
    "version": 1
  }
}