{
  "contractName": "Raffle",
  "abi": [
    {
      "inputs": [],
      "stateMutability": "nonpayable",
      "type": "constructor"
    },
    {
      "anonymous": false,
      "inputs": [
        {
          "indexed": true,
          "internalType": "address",
          "name": "previousOwner",
          "type": "address"
        },
        {
          "indexed": true,
          "internalType": "address",
          "name": "newOwner",
          "type": "address"
        }
      ],
      "name": "OwnershipTransferred",
      "type": "event"
    },
    {
      "anonymous": false,
      "inputs": [
        {
          "indexed": false,
          "internalType": "bytes32",
          "name": "requestId",
          "type": "bytes32"
        }
      ],
      "name": "RaffleInProgess",
      "type": "event"
    },
    {
      "anonymous": false,
      "inputs": [
        {
          "indexed": false,
          "internalType": "bytes32",
          "name": "requestId",
          "type": "bytes32"
        },
        {
          "indexed": false,
          "internalType": "address",
          "name": "winner",
          "type": "address"
        }
      ],
      "name": "RaffleWinnerChosen",
      "type": "event"
    },
    {
      "inputs": [],
      "name": "owner",
      "outputs": [
        {
          "internalType": "address",
          "name": "",
          "type": "address"
        }
      ],
      "stateMutability": "view",
      "type": "function",
      "constant": true
    },
    {
      "inputs": [
        {
          "internalType": "bytes32",
          "name": "requestId",
          "type": "bytes32"
        },
        {
          "internalType": "uint256",
          "name": "randomness",
          "type": "uint256"
        }
      ],
      "name": "rawFulfillRandomness",
      "outputs": [],
      "stateMutability": "nonpayable",
      "type": "function"
    },
    {
      "inputs": [],
      "name": "renounceOwnership",
      "outputs": [],
      "stateMutability": "nonpayable",
      "type": "function"
    },
    {
      "inputs": [
        {
          "internalType": "address",
          "name": "newOwner",
          "type": "address"
        }
      ],
      "name": "transferOwnership",
      "outputs": [],
      "stateMutability": "nonpayable",
      "type": "function"
    },
    {
      "inputs": [],
      "name": "winner",
      "outputs": [
        {
          "internalType": "address",
          "name": "",
          "type": "address"
        }
      ],
      "stateMutability": "view",
      "type": "function",
      "constant": true
    },
    {
      "inputs": [],
      "name": "getRaffleWinner",
      "outputs": [
        {
          "internalType": "bytes32",
          "name": "requestId",
          "type": "bytes32"
        }
      ],
      "stateMutability": "nonpayable",
      "type": "function"
    },
    {
      "inputs": [],
      "name": "withdrawLink",
      "outputs": [],
      "stateMutability": "nonpayable",
      "type": "function"
    },
    {
      "inputs": [],
      "name": "linkBalance",
      "outputs": [
        {
          "internalType": "uint256",
          "name": "balance",
          "type": "uint256"
        }
      ],
      "stateMutability": "view",
      "type": "function",
      "constant": true
    },
    {
      "inputs": [],
      "name": "claimTicket",
      "outputs": [],
      "stateMutability": "nonpayable",
      "type": "function"
    },
    {
      "inputs": [],
      "name": "raffle",
      "outputs": [
        {
          "internalType": "bool",
          "name": "",
          "type": "bool"
        }
      ],
      "stateMutability": "view",
      "type": "function",
      "constant": true
    },
    {
      "inputs": [],
      "name": "mint",
      "outputs": [
        {
          "internalType": "bool",
          "name": "",
          "type": "bool"
        }
      ],
      "stateMutability": "payable",
      "type": "function",
      "payable": true
    }
  ],
  "bytecode": "0x60c06040527301be23585060835e02b77ef475b0cc51aa1e0709600260006101000a81548173ffffffffffffffffffffffffffffffffffffffff021916908373ffffffffffffffffffffffffffffffffffffffff16021790555073b3dccb4cf7a26f6cf6b120cf5a73875b7bbc655b600360006101000a81548173ffffffffffffffffffffffffffffffffffffffff021916908373ffffffffffffffffffffffffffffffffffffffff1602179055507f2ed0feb3e7fd2022120aa84fab1945545a9f2ffc9076fd6156fa96eaff4c131160001b60045567016345785d8a00006005556000600660006101000a81548160ff02191690831515021790555034801561010857600080fd5b50600360009054906101000a900473ffffffffffffffffffffffffffffffffffffffff16600260009054906101000a900473ffffffffffffffffffffffffffffffffffffffff1661016b6101606101da60201b60201c565b6101e260201b60201c565b8173ffffffffffffffffffffffffffffffffffffffff1660a08173ffffffffffffffffffffffffffffffffffffffff16815250508073ffffffffffffffffffffffffffffffffffffffff1660808173ffffffffffffffffffffffffffffffffffffffff168152505050506102a6565b600033905090565b60008060009054906101000a900473ffffffffffffffffffffffffffffffffffffffff169050816000806101000a81548173ffffffffffffffffffffffffffffffffffffffff021916908373ffffffffffffffffffffffffffffffffffffffff1602179055508173ffffffffffffffffffffffffffffffffffffffff168173ffffffffffffffffffffffffffffffffffffffff167f8be0079c531659141344cd1fd0a4f28419497f9722a3daafe3b4186f6b6457e060405160405180910390a35050565b60805160a0516116df6102ee600039600081816107190152610b0d015260008181610302015281816105db015281816106770152818161090a0152610ad101526116df6000f3fe60806040526004361061009c5760003560e01c80638dc654a2116100645780638dc654a21461015757806394985ddd1461016e5780639c84e6f214610197578063c26ecefa146101ae578063dfbf53ae146101d9578063f2fde38b146102045761009c565b80631249c58b146100a15780631bb764e5146100bf57806333c1420a146100ea578063715018a6146101155780638da5cb5b1461012c575b600080fd5b6100a961022d565b6040516100b69190610e61565b60405180910390f35b3480156100cb57600080fd5b506100d4610236565b6040516100e19190610e95565b60405180910390f35b3480156100f657600080fd5b506100ff610425565b60405161010c9190610e61565b60405180910390f35b34801561012157600080fd5b5061012a6104aa565b005b34801561013857600080fd5b50610141610532565b60405161014e9190610ef1565b60405180910390f35b34801561016357600080fd5b5061016c61055b565b005b34801561017a57600080fd5b5061019560048036038101906101909190610f73565b610717565b005b3480156101a357600080fd5b506101ac6107b3565b005b3480156101ba57600080fd5b506101c3610906565b6040516101d09190610fc2565b60405180910390f35b3480156101e557600080fd5b506101ee6109a7565b6040516101fb9190610ef1565b60405180910390f35b34801561021057600080fd5b5061022b60048036038101906102269190611009565b6109cd565b005b60006001905090565b6000610240610ac5565b73ffffffffffffffffffffffffffffffffffffffff1661025e610532565b73ffffffffffffffffffffffffffffffffffffffff16146102b4576040517f08c379a00000000000000000000000000000000000000000000000000000000081526004016102ab90611093565b60405180910390fd5b600160088054905010156102fd576040517f08c379a00000000000000000000000000000000000000000000000000000000081526004016102f4906110ff565b60405180910390fd5b6005547f000000000000000000000000000000000000000000000000000000000000000073ffffffffffffffffffffffffffffffffffffffff166370a08231306040518263ffffffff1660e01b81526004016103599190610ef1565b602060405180830381865afa158015610376573d6000803e3d6000fd5b505050506040513d601f19601f8201168201806040525081019061039a9190611134565b10156103db576040517f08c379a00000000000000000000000000000000000000000000000000000000081526004016103d2906111ad565b60405180910390fd5b6103e9600454600554610acd565b90507f497c0b6d87b82025f0247dc329f1d41ff147b4b900161b2bbdaa924ffe25919a8160405161041a9190610e95565b60405180910390a190565b600061042f610ac5565b73ffffffffffffffffffffffffffffffffffffffff1661044d610532565b73ffffffffffffffffffffffffffffffffffffffff16146104a3576040517f08c379a000000000000000000000000000000000000000000000000000000000815260040161049a90611093565b60405180910390fd5b6001905090565b6104b2610ac5565b73ffffffffffffffffffffffffffffffffffffffff166104d0610532565b73ffffffffffffffffffffffffffffffffffffffff1614610526576040517f08c379a000000000000000000000000000000000000000000000000000000000815260040161051d90611093565b60405180910390fd5b6105306000610c1f565b565b60008060009054906101000a900473ffffffffffffffffffffffffffffffffffffffff16905090565b610563610ac5565b73ffffffffffffffffffffffffffffffffffffffff16610581610532565b73ffffffffffffffffffffffffffffffffffffffff16146105d7576040517f08c379a00000000000000000000000000000000000000000000000000000000081526004016105ce90611093565b60405180910390fd5b60007f000000000000000000000000000000000000000000000000000000000000000073ffffffffffffffffffffffffffffffffffffffff166370a08231306040518263ffffffff1660e01b81526004016106329190610ef1565b602060405180830381865afa15801561064f573d6000803e3d6000fd5b505050506040513d601f19601f820116820180604052508101906106739190611134565b90507f000000000000000000000000000000000000000000000000000000000000000073ffffffffffffffffffffffffffffffffffffffff1663a9059cbb33836040518363ffffffff1660e01b81526004016106d09291906111cd565b6020604051808303816000875af11580156106ef573d6000803e3d6000fd5b505050506040513d601f19601f820116820180604052508101906107139190611222565b5050565b7f000000000000000000000000000000000000000000000000000000000000000073ffffffffffffffffffffffffffffffffffffffff163373ffffffffffffffffffffffffffffffffffffffff16146107a5576040517f08c379a000000000000000000000000000000000000000000000000000000000815260040161079c9061129b565b60405180910390fd5b6107af8282610ce3565b5050565b3360011515600760008373ffffffffffffffffffffffffffffffffffffffff1673ffffffffffffffffffffffffffffffffffffffff16815260200190815260200160002060009054906101000a900460ff1615151415610848576040517f08c379a000000000000000000000000000000000000000000000000000000000815260040161083f90611307565b60405180910390fd5b6001600760003373ffffffffffffffffffffffffffffffffffffffff1673ffffffffffffffffffffffffffffffffffffffff16815260200190815260200160002060006101000a81548160ff0219169083151502179055506008339080600181540180825580915050600190039060005260206000200160009091909190916101000a81548173ffffffffffffffffffffffffffffffffffffffff021916908373ffffffffffffffffffffffffffffffffffffffff16021790555050565b60007f000000000000000000000000000000000000000000000000000000000000000073ffffffffffffffffffffffffffffffffffffffff166370a08231306040518263ffffffff1660e01b81526004016109619190610ef1565b602060405180830381865afa15801561097e573d6000803e3d6000fd5b505050506040513d601f19601f820116820180604052508101906109a29190611134565b905090565b600960009054906101000a900473ffffffffffffffffffffffffffffffffffffffff1681565b6109d5610ac5565b73ffffffffffffffffffffffffffffffffffffffff166109f3610532565b73ffffffffffffffffffffffffffffffffffffffff1614610a49576040517f08c379a0000000000000000000000000000000000000000000000000000000008152600401610a4090611093565b60405180910390fd5b600073ffffffffffffffffffffffffffffffffffffffff168173ffffffffffffffffffffffffffffffffffffffff161415610ab9576040517f08c379a0000000000000000000000000000000000000000000000000000000008152600401610ab090611399565b60405180910390fd5b610ac281610c1f565b50565b600033905090565b60007f000000000000000000000000000000000000000000000000000000000000000073ffffffffffffffffffffffffffffffffffffffff16634000aea07f000000000000000000000000000000000000000000000000000000000000000084866000604051602001610b419291906113b9565b6040516020818303038152906040526040518463ffffffff1660e01b8152600401610b6e9392919061147b565b6020604051808303816000875af1158015610b8d573d6000803e3d6000fd5b505050506040513d601f19601f82011682018060405250810190610bb19190611222565b506000610bd4846000306001600089815260200190815260200160002054610dd7565b9050600180600086815260200190815260200160002054610bf591906114e8565b6001600086815260200190815260200160002081905550610c168482610e13565b91505092915050565b60008060009054906101000a900473ffffffffffffffffffffffffffffffffffffffff169050816000806101000a81548173ffffffffffffffffffffffffffffffffffffffff021916908373ffffffffffffffffffffffffffffffffffffffff1602179055508173ffffffffffffffffffffffffffffffffffffffff168173ffffffffffffffffffffffffffffffffffffffff167f8be0079c531659141344cd1fd0a4f28419497f9722a3daafe3b4186f6b6457e060405160405180910390a35050565b600060088054905082610cf6919061156d565b905060088181548110610d0c57610d0b61159e565b5b9060005260206000200160009054906101000a900473ffffffffffffffffffffffffffffffffffffffff16600960006101000a81548173ffffffffffffffffffffffffffffffffffffffff021916908373ffffffffffffffffffffffffffffffffffffffff1602179055507fcd82c687de3896116ee05479477948e539ae4eec9e5b62c290926aebe911564683600960009054906101000a900473ffffffffffffffffffffffffffffffffffffffff16604051610dca9291906115cd565b60405180910390a1505050565b600084848484604051602001610df094939291906115f6565b6040516020818303038152906040528051906020012060001c9050949350505050565b60008282604051602001610e2892919061167d565b60405160208183030381529060405280519060200120905092915050565b60008115159050919050565b610e5b81610e46565b82525050565b6000602082019050610e766000830184610e52565b92915050565b6000819050919050565b610e8f81610e7c565b82525050565b6000602082019050610eaa6000830184610e86565b92915050565b600073ffffffffffffffffffffffffffffffffffffffff82169050919050565b6000610edb82610eb0565b9050919050565b610eeb81610ed0565b82525050565b6000602082019050610f066000830184610ee2565b92915050565b600080fd5b610f1a81610e7c565b8114610f2557600080fd5b50565b600081359050610f3781610f11565b92915050565b6000819050919050565b610f5081610f3d565b8114610f5b57600080fd5b50565b600081359050610f6d81610f47565b92915050565b60008060408385031215610f8a57610f89610f0c565b5b6000610f9885828601610f28565b9250506020610fa985828601610f5e565b9150509250929050565b610fbc81610f3d565b82525050565b6000602082019050610fd76000830184610fb3565b92915050565b610fe681610ed0565b8114610ff157600080fd5b50565b60008135905061100381610fdd565b92915050565b60006020828403121561101f5761101e610f0c565b5b600061102d84828501610ff4565b91505092915050565b600082825260208201905092915050565b7f4f776e61626c653a2063616c6c6572206973206e6f7420746865206f776e6572600082015250565b600061107d602083611036565b915061108882611047565b602082019050919050565b600060208201905081810360008301526110ac81611070565b9050919050565b7f4e656564206174206c65617374206f6e6520656e7472616e7400000000000000600082015250565b60006110e9601983611036565b91506110f4826110b3565b602082019050919050565b60006020820190508181036000830152611118816110dc565b9050919050565b60008151905061112e81610f47565b92915050565b60006020828403121561114a57611149610f0c565b5b60006111588482850161111f565b91505092915050565b7f4e6f7420656e6f756768204c494e4b0000000000000000000000000000000000600082015250565b6000611197600f83611036565b91506111a282611161565b602082019050919050565b600060208201905081810360008301526111c68161118a565b9050919050565b60006040820190506111e26000830185610ee2565b6111ef6020830184610fb3565b9392505050565b6111ff81610e46565b811461120a57600080fd5b50565b60008151905061121c816111f6565b92915050565b60006020828403121561123857611237610f0c565b5b60006112468482850161120d565b91505092915050565b7f4f6e6c7920565246436f6f7264696e61746f722063616e2066756c66696c6c00600082015250565b6000611285601f83611036565b91506112908261124f565b602082019050919050565b600060208201905081810360008301526112b481611278565b9050919050565b7f4f6e6c79206f6e6520656e747279207065722061646472657373000000000000600082015250565b60006112f1601a83611036565b91506112fc826112bb565b602082019050919050565b60006020820190508181036000830152611320816112e4565b9050919050565b7f4f776e61626c653a206e6577206f776e657220697320746865207a65726f206160008201527f6464726573730000000000000000000000000000000000000000000000000000602082015250565b6000611383602683611036565b915061138e82611327565b604082019050919050565b600060208201905081810360008301526113b281611376565b9050919050565b60006040820190506113ce6000830185610e86565b6113db6020830184610fb3565b9392505050565b600081519050919050565b600082825260208201905092915050565b60005b8381101561141c578082015181840152602081019050611401565b8381111561142b576000848401525b50505050565b6000601f19601f8301169050919050565b600061144d826113e2565b61145781856113ed565b93506114678185602086016113fe565b61147081611431565b840191505092915050565b60006060820190506114906000830186610ee2565b61149d6020830185610fb3565b81810360408301526114af8184611442565b9050949350505050565b7f4e487b7100000000000000000000000000000000000000000000000000000000600052601160045260246000fd5b60006114f382610f3d565b91506114fe83610f3d565b9250827fffffffffffffffffffffffffffffffffffffffffffffffffffffffffffffffff03821115611533576115326114b9565b5b828201905092915050565b7f4e487b7100000000000000000000000000000000000000000000000000000000600052601260045260246000fd5b600061157882610f3d565b915061158383610f3d565b9250826115935761159261153e565b5b828206905092915050565b7f4e487b7100000000000000000000000000000000000000000000000000000000600052603260045260246000fd5b60006040820190506115e26000830185610e86565b6115ef6020830184610ee2565b9392505050565b600060808201905061160b6000830187610e86565b6116186020830186610fb3565b6116256040830185610ee2565b6116326060830184610fb3565b95945050505050565b6000819050919050565b61165661165182610e7c565b61163b565b82525050565b6000819050919050565b61167761167282610f3d565b61165c565b82525050565b60006116898285611645565b6020820191506116998284611666565b602082019150819050939250505056fea26469706673582212206d7eca6ceac0f254b9c276809b27e802afc1fc5c82f239b444ddf48418cfc73764736f6c634300080a0033",
  "immutableReferences": {
    "73": [
      {
        "length": 32,
        "start": 770
      },
      {
        "length": 32,
        "start": 1499
      },
      {
        "length": 32,
        "start": 1655
      },
      {
        "length": 32,
        "start": 2314
      },
      {
        "length": 32,
        "start": 2769
      }
    ],
    "75": [
      {
        "length": 32,
        "start": 1817
      },
      {
        "length": 32,
        "start": 2829
      }
    ]
  },
  "source": "// SPDX-License-Identifier: MIT\npragma solidity 0.8.10;\n\nimport \"@openzeppelin/contracts/access/Ownable.sol\";\nimport \"@chainlink/contracts/src/v0.8/VRFConsumerBase.sol\";\n\ncontract Raffle is Ownable, VRFConsumerBase {\n\n  // used by the chainlink VRF (below is true only for Rinkeby)\n  address internal linkToken = 0x01BE23585060835E02B77ef475b0Cc51aA1e0709;\n  address internal vrfCoordinator = 0xb3dCcb4Cf7a26f6cf6B120Cf5A73875B7BBc655B;\n  bytes32 internal keyHash = 0x2ed0feb3e7fd2022120aa84fab1945545a9f2ffc9076fd6156fa96eaff4c1311;\n  uint256 internal fee = 0.1 * 10 ** 18;\n  bool RAFFLE_IN_PROGESS = false;\n\n  event RaffleInProgess(bytes32 requestId);\n  event RaffleWinnerChosen(bytes32 requestId, address winner);\n\n  mapping(address => bool) internal entrants;\n  address[] internal entrants_array;\n  address public winner;\n\n  // mapping(address => bool) public winners;\n  constructor() \n        VRFConsumerBase(\n            vrfCoordinator, // VRF Coordinator\n            linkToken  // LINK Token\n        )\n    {\n    }\n\n    /** \n     * Requests randomness \n     */\n    function getRaffleWinner() public onlyOwner returns (bytes32 requestId) {\n        require(entrants_array.length >= 1, \"Need at least one entrant\");\n        require(LINK.balanceOf(address(this)) >= fee, \"Not enough LINK\");\n        requestId = requestRandomness(keyHash, fee);\n        emit RaffleInProgess(requestId);\n    }\n\n    function fulfillRandomness(bytes32 requestId, uint256 randomness) internal override {\n        uint256 winner_index = randomness % entrants_array.length;\n        winner = entrants_array[winner_index];\n        emit RaffleWinnerChosen(requestId, winner);\n    }\n\n    function withdrawLink() public onlyOwner {\n        // return LINK to owner\n        uint256 link_balance = LINK.balanceOf(address(this));\n        LINK.transfer(msg.sender, link_balance);\n    }\n\n    function linkBalance() public view returns (uint256 balance) {\n     return LINK.balanceOf(address(this));\n    }\n\n  // does nothing for now, could have checks on address used.\n  modifier entrantValid(address _entrant) {\n    require(entrants[_entrant] != true, \"Only one entry per address\");\n    _;\n  }\n\n  // sign a message or something, need this to be easy and cheap.\n  function claimTicket() public entrantValid(msg.sender) {\n    entrants[msg.sender] = true;\n    entrants_array.push(msg.sender);\n  }\n\n  // run the raffle. Use Chainlinks' RNG provider.\n  function raffle() public view onlyOwner returns (bool) {\n    return true;\n  }\n\n  // mint one of the NFTs\n  function mint() public payable returns (bool) {\n    return true;\n  }\n}",
  "sourcePath": "/Users/will/Dev/blockchain_course/blockchain-developer-bootcamp-final-project/contracts/Raffle.sol",
  "compiler": {
    "name": "solc",
    "version": "0.8.10+commit.fc410830.Emscripten.clang"
  },
  "schemaVersion": "3.4.3",
  "updatedAt": "2021-11-24T21:55:54.119Z",
  "networkType": "ethereum",
  "devdoc": {
    "kind": "dev",
    "methods": {
      "owner()": {
        "details": "Returns the address of the current owner."
      },
      "renounceOwnership()": {
        "details": "Leaves the contract without owner. It will not be possible to call `onlyOwner` functions anymore. Can only be called by the current owner. NOTE: Renouncing ownership will leave the contract without an owner, thereby removing any functionality that is only available to the owner."
      },
      "transferOwnership(address)": {
        "details": "Transfers ownership of the contract to a new account (`newOwner`). Can only be called by the current owner."
      }
    },
    "version": 1
  },
  "userdoc": {
    "kind": "user",
    "methods": {
      "getRaffleWinner()": {
        "notice": "Requests randomness "
      }
    },
    "version": 1
  }
}