{
  "contractName": "Raffle",
  "abi": [
    {
      "inputs": [],
      "stateMutability": "nonpayable",
      "type": "constructor"
    },
    {
      "anonymous": false,
      "inputs": [
        {
          "indexed": true,
          "internalType": "address",
          "name": "previousOwner",
          "type": "address"
        },
        {
          "indexed": true,
          "internalType": "address",
          "name": "newOwner",
          "type": "address"
        }
      ],
      "name": "OwnershipTransferred",
      "type": "event"
    },
    {
      "anonymous": false,
      "inputs": [
        {
          "indexed": false,
          "internalType": "bytes32",
          "name": "requestId",
          "type": "bytes32"
        }
      ],
      "name": "RaffleInProgess",
      "type": "event"
    },
    {
      "anonymous": false,
      "inputs": [
        {
          "indexed": false,
          "internalType": "bytes32",
          "name": "requestId",
          "type": "bytes32"
        },
        {
          "indexed": false,
          "internalType": "address",
          "name": "winner",
          "type": "address"
        }
      ],
      "name": "RaffleWinnerChosen",
      "type": "event"
    },
    {
      "inputs": [],
      "name": "owner",
      "outputs": [
        {
          "internalType": "address",
          "name": "",
          "type": "address"
        }
      ],
      "stateMutability": "view",
      "type": "function",
      "constant": true
    },
    {
      "inputs": [
        {
          "internalType": "bytes32",
          "name": "requestId",
          "type": "bytes32"
        },
        {
          "internalType": "uint256",
          "name": "randomness",
          "type": "uint256"
        }
      ],
      "name": "rawFulfillRandomness",
      "outputs": [],
      "stateMutability": "nonpayable",
      "type": "function"
    },
    {
      "inputs": [],
      "name": "renounceOwnership",
      "outputs": [],
      "stateMutability": "nonpayable",
      "type": "function"
    },
    {
      "inputs": [
        {
          "internalType": "address",
          "name": "newOwner",
          "type": "address"
        }
      ],
      "name": "transferOwnership",
      "outputs": [],
      "stateMutability": "nonpayable",
      "type": "function"
    },
    {
      "inputs": [],
      "name": "winner",
      "outputs": [
        {
          "internalType": "address",
          "name": "",
          "type": "address"
        }
      ],
      "stateMutability": "view",
      "type": "function",
      "constant": true
    },
    {
      "inputs": [],
      "name": "getRaffleWinner",
      "outputs": [
        {
          "internalType": "bytes32",
          "name": "requestId",
          "type": "bytes32"
        }
      ],
      "stateMutability": "nonpayable",
      "type": "function"
    },
    {
      "inputs": [],
      "name": "withdrawLink",
      "outputs": [],
      "stateMutability": "nonpayable",
      "type": "function"
    },
    {
      "inputs": [],
      "name": "linkBalance",
      "outputs": [
        {
          "internalType": "uint256",
          "name": "balance",
          "type": "uint256"
        }
      ],
      "stateMutability": "view",
      "type": "function",
      "constant": true
    },
    {
      "inputs": [],
      "name": "claimTicket",
      "outputs": [],
      "stateMutability": "nonpayable",
      "type": "function"
    },
    {
      "inputs": [],
      "name": "ticketsSold",
      "outputs": [
        {
          "internalType": "uint256",
          "name": "",
          "type": "uint256"
        }
      ],
      "stateMutability": "view",
      "type": "function",
      "constant": true
    },
    {
      "inputs": [],
      "name": "resetRaffle",
      "outputs": [],
      "stateMutability": "nonpayable",
      "type": "function"
    },
    {
      "inputs": [],
      "name": "entrantInRaffle",
      "outputs": [
        {
          "internalType": "bool",
          "name": "",
          "type": "bool"
        }
      ],
      "stateMutability": "view",
      "type": "function",
      "constant": true
    },
    {
      "inputs": [],
      "name": "claimPrize",
      "outputs": [
        {
          "internalType": "bool",
          "name": "",
          "type": "bool"
        }
      ],
      "stateMutability": "view",
      "type": "function",
      "constant": true
    }
  ],
  "bytecode": "0x60c06040527301be23585060835e02b77ef475b0cc51aa1e0709600260006101000a81548173ffffffffffffffffffffffffffffffffffffffff021916908373ffffffffffffffffffffffffffffffffffffffff16021790555073b3dccb4cf7a26f6cf6b120cf5a73875b7bbc655b600360006101000a81548173ffffffffffffffffffffffffffffffffffffffff021916908373ffffffffffffffffffffffffffffffffffffffff1602179055507f2ed0feb3e7fd2022120aa84fab1945545a9f2ffc9076fd6156fa96eaff4c131160001b60045567016345785d8a00006005553480156100ed57600080fd5b50600360009054906101000a900473ffffffffffffffffffffffffffffffffffffffff16600260009054906101000a900473ffffffffffffffffffffffffffffffffffffffff166101506101456101bf60201b60201c565b6101c760201b60201c565b8173ffffffffffffffffffffffffffffffffffffffff1660a08173ffffffffffffffffffffffffffffffffffffffff16815250508073ffffffffffffffffffffffffffffffffffffffff1660808173ffffffffffffffffffffffffffffffffffffffff1681525050505061028b565b600033905090565b60008060009054906101000a900473ffffffffffffffffffffffffffffffffffffffff169050816000806101000a81548173ffffffffffffffffffffffffffffffffffffffff021916908373ffffffffffffffffffffffffffffffffffffffff1602179055508173ffffffffffffffffffffffffffffffffffffffff168173ffffffffffffffffffffffffffffffffffffffff167f8be0079c531659141344cd1fd0a4f28419497f9722a3daafe3b4186f6b6457e060405160405180910390a35050565b60805160a0516118c16102d3600039600081816108740152610c680152600081816102d2015281816106d50152818161077101528181610a650152610c2c01526118c16000f3fe608060405234801561001057600080fd5b50600436106100cf5760003560e01c80638f15024f1161008c5780639c84e6f2116100665780639c84e6f2146101a4578063c26ecefa146101ae578063dfbf53ae146101cc578063f2fde38b146101ea576100cf565b80638f15024f1461014c57806393c84dbd1461016a57806394985ddd14610188576100cf565b80631bb764e5146100d45780636d99f652146100f257806370740ac9146100fc578063715018a61461011a5780638da5cb5b146101245780638dc654a214610142575b600080fd5b6100dc610206565b6040516100e99190610ff8565b60405180910390f35b6100fa6103f5565b005b61010461053b565b604051610111919061102e565b60405180910390f35b6101226105a4565b005b61012c61062c565b604051610139919061108a565b60405180910390f35b61014a610655565b005b610154610811565b60405161016191906110be565b60405180910390f35b61017261081e565b60405161017f919061102e565b60405180910390f35b6101a2600480360381019061019d9190611136565b610872565b005b6101ac61090e565b005b6101b6610a61565b6040516101c391906110be565b60405180910390f35b6101d4610b02565b6040516101e1919061108a565b60405180910390f35b61020460048036038101906101ff91906111a2565b610b28565b005b6000610210610c20565b73ffffffffffffffffffffffffffffffffffffffff1661022e61062c565b73ffffffffffffffffffffffffffffffffffffffff1614610284576040517f08c379a000000000000000000000000000000000000000000000000000000000815260040161027b9061122c565b60405180910390fd5b600160078054905010156102cd576040517f08c379a00000000000000000000000000000000000000000000000000000000081526004016102c490611298565b60405180910390fd5b6005547f000000000000000000000000000000000000000000000000000000000000000073ffffffffffffffffffffffffffffffffffffffff166370a08231306040518263ffffffff1660e01b8152600401610329919061108a565b602060405180830381865afa158015610346573d6000803e3d6000fd5b505050506040513d601f19601f8201168201806040525081019061036a91906112cd565b10156103ab576040517f08c379a00000000000000000000000000000000000000000000000000000000081526004016103a290611346565b60405180910390fd5b6103b9600454600554610c28565b90507f497c0b6d87b82025f0247dc329f1d41ff147b4b900161b2bbdaa924ffe25919a816040516103ea9190610ff8565b60405180910390a190565b6103fd610c20565b73ffffffffffffffffffffffffffffffffffffffff1661041b61062c565b73ffffffffffffffffffffffffffffffffffffffff1614610471576040517f08c379a00000000000000000000000000000000000000000000000000000000081526004016104689061122c565b60405180910390fd5b60005b60078054905081101561052a576000600660006007848154811061049b5761049a611366565b5b9060005260206000200160009054906101000a900473ffffffffffffffffffffffffffffffffffffffff1673ffffffffffffffffffffffffffffffffffffffff1673ffffffffffffffffffffffffffffffffffffffff16815260200190815260200160002060006101000a81548160ff0219169083151502179055508080610522906113c4565b915050610474565b50600760006105399190610fa1565b565b6000600860009054906101000a900473ffffffffffffffffffffffffffffffffffffffff1673ffffffffffffffffffffffffffffffffffffffff163373ffffffffffffffffffffffffffffffffffffffff16141561059c57600190506105a1565b600090505b90565b6105ac610c20565b73ffffffffffffffffffffffffffffffffffffffff166105ca61062c565b73ffffffffffffffffffffffffffffffffffffffff1614610620576040517f08c379a00000000000000000000000000000000000000000000000000000000081526004016106179061122c565b60405180910390fd5b61062a6000610d7a565b565b60008060009054906101000a900473ffffffffffffffffffffffffffffffffffffffff16905090565b61065d610c20565b73ffffffffffffffffffffffffffffffffffffffff1661067b61062c565b73ffffffffffffffffffffffffffffffffffffffff16146106d1576040517f08c379a00000000000000000000000000000000000000000000000000000000081526004016106c89061122c565b60405180910390fd5b60007f000000000000000000000000000000000000000000000000000000000000000073ffffffffffffffffffffffffffffffffffffffff166370a08231306040518263ffffffff1660e01b815260040161072c919061108a565b602060405180830381865afa158015610749573d6000803e3d6000fd5b505050506040513d601f19601f8201168201806040525081019061076d91906112cd565b90507f000000000000000000000000000000000000000000000000000000000000000073ffffffffffffffffffffffffffffffffffffffff1663a9059cbb33836040518363ffffffff1660e01b81526004016107ca92919061140d565b6020604051808303816000875af11580156107e9573d6000803e3d6000fd5b505050506040513d601f19601f8201168201806040525081019061080d9190611462565b5050565b6000600780549050905090565b6000600660003373ffffffffffffffffffffffffffffffffffffffff1673ffffffffffffffffffffffffffffffffffffffff16815260200190815260200160002060009054906101000a900460ff16905090565b7f000000000000000000000000000000000000000000000000000000000000000073ffffffffffffffffffffffffffffffffffffffff163373ffffffffffffffffffffffffffffffffffffffff1614610900576040517f08c379a00000000000000000000000000000000000000000000000000000000081526004016108f7906114db565b60405180910390fd5b61090a8282610e3e565b5050565b3360011515600660008373ffffffffffffffffffffffffffffffffffffffff1673ffffffffffffffffffffffffffffffffffffffff16815260200190815260200160002060009054906101000a900460ff16151514156109a3576040517f08c379a000000000000000000000000000000000000000000000000000000000815260040161099a90611547565b60405180910390fd5b6001600660003373ffffffffffffffffffffffffffffffffffffffff1673ffffffffffffffffffffffffffffffffffffffff16815260200190815260200160002060006101000a81548160ff0219169083151502179055506007339080600181540180825580915050600190039060005260206000200160009091909190916101000a81548173ffffffffffffffffffffffffffffffffffffffff021916908373ffffffffffffffffffffffffffffffffffffffff16021790555050565b60007f000000000000000000000000000000000000000000000000000000000000000073ffffffffffffffffffffffffffffffffffffffff166370a08231306040518263ffffffff1660e01b8152600401610abc919061108a565b602060405180830381865afa158015610ad9573d6000803e3d6000fd5b505050506040513d601f19601f82011682018060405250810190610afd91906112cd565b905090565b600860009054906101000a900473ffffffffffffffffffffffffffffffffffffffff1681565b610b30610c20565b73ffffffffffffffffffffffffffffffffffffffff16610b4e61062c565b73ffffffffffffffffffffffffffffffffffffffff1614610ba4576040517f08c379a0000000000000000000000000000000000000000000000000000000008152600401610b9b9061122c565b60405180910390fd5b600073ffffffffffffffffffffffffffffffffffffffff168173ffffffffffffffffffffffffffffffffffffffff161415610c14576040517f08c379a0000000000000000000000000000000000000000000000000000000008152600401610c0b906115d9565b60405180910390fd5b610c1d81610d7a565b50565b600033905090565b60007f000000000000000000000000000000000000000000000000000000000000000073ffffffffffffffffffffffffffffffffffffffff16634000aea07f000000000000000000000000000000000000000000000000000000000000000084866000604051602001610c9c9291906115f9565b6040516020818303038152906040526040518463ffffffff1660e01b8152600401610cc9939291906116bb565b6020604051808303816000875af1158015610ce8573d6000803e3d6000fd5b505050506040513d601f19601f82011682018060405250810190610d0c9190611462565b506000610d2f846000306001600089815260200190815260200160002054610f32565b9050600180600086815260200190815260200160002054610d5091906116f9565b6001600086815260200190815260200160002081905550610d718482610f6e565b91505092915050565b60008060009054906101000a900473ffffffffffffffffffffffffffffffffffffffff169050816000806101000a81548173ffffffffffffffffffffffffffffffffffffffff021916908373ffffffffffffffffffffffffffffffffffffffff1602179055508173ffffffffffffffffffffffffffffffffffffffff168173ffffffffffffffffffffffffffffffffffffffff167f8be0079c531659141344cd1fd0a4f28419497f9722a3daafe3b4186f6b6457e060405160405180910390a35050565b600060078054905082610e51919061177e565b905060078181548110610e6757610e66611366565b5b9060005260206000200160009054906101000a900473ffffffffffffffffffffffffffffffffffffffff16600860006101000a81548173ffffffffffffffffffffffffffffffffffffffff021916908373ffffffffffffffffffffffffffffffffffffffff1602179055507fcd82c687de3896116ee05479477948e539ae4eec9e5b62c290926aebe911564683600860009054906101000a900473ffffffffffffffffffffffffffffffffffffffff16604051610f259291906117af565b60405180910390a1505050565b600084848484604051602001610f4b94939291906117d8565b6040516020818303038152906040528051906020012060001c9050949350505050565b60008282604051602001610f8392919061185f565b60405160208183030381529060405280519060200120905092915050565b5080546000825590600052602060002090810190610fbf9190610fc2565b50565b5b80821115610fdb576000816000905550600101610fc3565b5090565b6000819050919050565b610ff281610fdf565b82525050565b600060208201905061100d6000830184610fe9565b92915050565b60008115159050919050565b61102881611013565b82525050565b6000602082019050611043600083018461101f565b92915050565b600073ffffffffffffffffffffffffffffffffffffffff82169050919050565b600061107482611049565b9050919050565b61108481611069565b82525050565b600060208201905061109f600083018461107b565b92915050565b6000819050919050565b6110b8816110a5565b82525050565b60006020820190506110d360008301846110af565b92915050565b600080fd5b6110e781610fdf565b81146110f257600080fd5b50565b600081359050611104816110de565b92915050565b611113816110a5565b811461111e57600080fd5b50565b6000813590506111308161110a565b92915050565b6000806040838503121561114d5761114c6110d9565b5b600061115b858286016110f5565b925050602061116c85828601611121565b9150509250929050565b61117f81611069565b811461118a57600080fd5b50565b60008135905061119c81611176565b92915050565b6000602082840312156111b8576111b76110d9565b5b60006111c68482850161118d565b91505092915050565b600082825260208201905092915050565b7f4f776e61626c653a2063616c6c6572206973206e6f7420746865206f776e6572600082015250565b60006112166020836111cf565b9150611221826111e0565b602082019050919050565b6000602082019050818103600083015261124581611209565b9050919050565b7f4e656564206174206c65617374206f6e6520656e7472616e7400000000000000600082015250565b60006112826019836111cf565b915061128d8261124c565b602082019050919050565b600060208201905081810360008301526112b181611275565b9050919050565b6000815190506112c78161110a565b92915050565b6000602082840312156112e3576112e26110d9565b5b60006112f1848285016112b8565b91505092915050565b7f4e6f7420656e6f756768204c494e4b0000000000000000000000000000000000600082015250565b6000611330600f836111cf565b915061133b826112fa565b602082019050919050565b6000602082019050818103600083015261135f81611323565b9050919050565b7f4e487b7100000000000000000000000000000000000000000000000000000000600052603260045260246000fd5b7f4e487b7100000000000000000000000000000000000000000000000000000000600052601160045260246000fd5b60006113cf826110a5565b91507fffffffffffffffffffffffffffffffffffffffffffffffffffffffffffffffff82141561140257611401611395565b5b600182019050919050565b6000604082019050611422600083018561107b565b61142f60208301846110af565b9392505050565b61143f81611013565b811461144a57600080fd5b50565b60008151905061145c81611436565b92915050565b600060208284031215611478576114776110d9565b5b60006114868482850161144d565b91505092915050565b7f4f6e6c7920565246436f6f7264696e61746f722063616e2066756c66696c6c00600082015250565b60006114c5601f836111cf565b91506114d08261148f565b602082019050919050565b600060208201905081810360008301526114f4816114b8565b9050919050565b7f4f6e6c79206f6e6520656e747279207065722061646472657373000000000000600082015250565b6000611531601a836111cf565b915061153c826114fb565b602082019050919050565b6000602082019050818103600083015261156081611524565b9050919050565b7f4f776e61626c653a206e6577206f776e657220697320746865207a65726f206160008201527f6464726573730000000000000000000000000000000000000000000000000000602082015250565b60006115c36026836111cf565b91506115ce82611567565b604082019050919050565b600060208201905081810360008301526115f2816115b6565b9050919050565b600060408201905061160e6000830185610fe9565b61161b60208301846110af565b9392505050565b600081519050919050565b600082825260208201905092915050565b60005b8381101561165c578082015181840152602081019050611641565b8381111561166b576000848401525b50505050565b6000601f19601f8301169050919050565b600061168d82611622565b611697818561162d565b93506116a781856020860161163e565b6116b081611671565b840191505092915050565b60006060820190506116d0600083018661107b565b6116dd60208301856110af565b81810360408301526116ef8184611682565b9050949350505050565b6000611704826110a5565b915061170f836110a5565b9250827fffffffffffffffffffffffffffffffffffffffffffffffffffffffffffffffff0382111561174457611743611395565b5b828201905092915050565b7f4e487b7100000000000000000000000000000000000000000000000000000000600052601260045260246000fd5b6000611789826110a5565b9150611794836110a5565b9250826117a4576117a361174f565b5b828206905092915050565b60006040820190506117c46000830185610fe9565b6117d1602083018461107b565b9392505050565b60006080820190506117ed6000830187610fe9565b6117fa60208301866110af565b611807604083018561107b565b61181460608301846110af565b95945050505050565b6000819050919050565b61183861183382610fdf565b61181d565b82525050565b6000819050919050565b611859611854826110a5565b61183e565b82525050565b600061186b8285611827565b60208201915061187b8284611848565b602082019150819050939250505056fea26469706673582212208b2b4bdbe31c5040922c8d1ff21ee8d4dd59e7913400fb2f014379139d9f444264736f6c634300080a0033",
  "immutableReferences": {
    "73": [
      {
        "length": 32,
        "start": 722
      },
      {
        "length": 32,
        "start": 1749
      },
      {
        "length": 32,
        "start": 1905
      },
      {
        "length": 32,
        "start": 2661
      },
      {
        "length": 32,
        "start": 3116
      }
    ],
    "75": [
      {
        "length": 32,
        "start": 2164
      },
      {
        "length": 32,
        "start": 3176
      }
    ]
  },
  "source": "// SPDX-License-Identifier: MIT\npragma solidity 0.8.10;\n\nimport \"@openzeppelin/contracts/access/Ownable.sol\";\nimport \"@chainlink/contracts/src/v0.8/VRFConsumerBase.sol\";\n\n/// @title A Raffle contract for allocating prizes.\n/// @author William P. Grant\n/// This randomly chooses a winner, but doesn't currently give the winner anything, and is bottable.\n/// @dev Contract must be funded with LINK to function (use the Rinkeby faucet).\ncontract Raffle is Ownable, VRFConsumerBase {\n    // used by the chainlink VRF (below is true only for Rinkeby)\n    address internal linkToken = 0x01BE23585060835E02B77ef475b0Cc51aA1e0709;\n    address internal vrfCoordinator =\n        0xb3dCcb4Cf7a26f6cf6B120Cf5A73875B7BBc655B;\n    bytes32 internal keyHash =\n        0x2ed0feb3e7fd2022120aa84fab1945545a9f2ffc9076fd6156fa96eaff4c1311;\n    uint256 internal fee = 0.1 * 10**18;\n\n    mapping(address => bool) internal entrants;\n    address[] internal entrants_array;\n\n    /// @dev N.B this is uninitialised until a winner is chosen. Should always be in entrants and entrants_array.\n    address public winner;\n\n    /// Emitted once the random number has been requested from the external oracle.\n    /// @param requestId Used internally by the oracle.\n    event RaffleInProgess(bytes32 requestId);\n\n    /// Emitted once the random number has been received and used to choose a winner.\n    /// @param requestId Used internally by the oracle.\n    /// @param winner The address of the winner of the raffle.\n    event RaffleWinnerChosen(bytes32 requestId, address winner);\n\n    /// Initialises the contract with hardcoded Rinkeby VRF info.\n    constructor()\n        VRFConsumerBase(\n            vrfCoordinator, // VRF Coordinator\n            linkToken // LINK Token\n        )\n    {}\n\n    /// Requests the random number used to assign a winner, which is then\n    /// acted on by fulfillRandomness.\n    /// @return requestId The internal oracle id.\n    function getRaffleWinner() public onlyOwner returns (bytes32 requestId) {\n        require(entrants_array.length >= 1, \"Need at least one entrant\");\n        require(LINK.balanceOf(address(this)) >= fee, \"Not enough LINK\");\n        requestId = requestRandomness(keyHash, fee);\n        emit RaffleInProgess(requestId);\n    }\n\n    /// Required as part of the VRF interface. Uses the randomness from requestRandomness()\n    function fulfillRandomness(bytes32 requestId, uint256 randomness)\n        internal\n        override\n    {\n        uint256 winner_index = randomness % entrants_array.length;\n        winner = entrants_array[winner_index];\n        emit RaffleWinnerChosen(requestId, winner);\n    }\n\n    /// Utility to withdraw spare LINK.\n    function withdrawLink() public onlyOwner {\n        // return LINK to owner\n        uint256 link_balance = LINK.balanceOf(address(this));\n        LINK.transfer(msg.sender, link_balance);\n    }\n\n    /// Utility to check that the contract is funded before it's used.\n    function linkBalance() public view returns (uint256 balance) {\n        return LINK.balanceOf(address(this));\n    }\n\n    /// Enforces one raffle entry per unique address.\n    modifier entrantValid(address _entrant) {\n        require(entrants[_entrant] != true, \"Only one entry per address\");\n        _;\n    }\n\n    /// adds the message sender to the list of raffle entrants. Cost only gas.\n    function claimTicket() public entrantValid(msg.sender) {\n        entrants[msg.sender] = true;\n        entrants_array.push(msg.sender);\n    }\n\n    /// Used to display odds to the frontend.\n    function ticketsSold() public view returns (uint256) {\n        return entrants_array.length;\n    }\n\n    /// Reset the raffle, removing all entrants\n    function resetRaffle() public onlyOwner {\n        for (uint256 i = 0; i < entrants_array.length; i++) {\n            entrants[entrants_array[i]] = false;\n        }\n        delete entrants_array;\n    }\n\n    /// Used to check entry status on the frontend.\n    function entrantInRaffle() public view returns (bool) {\n        return entrants[msg.sender];\n    }\n\n    /// Used to distinguish the winner on the frontend.\n    /// @dev This is basically a no-op currently but could be used to e.g. mint coveted NFTs.\n    function claimPrize() public view returns (bool) {\n        if (msg.sender == winner) {\n            return true;\n        } else {\n            return false;\n        }\n    }\n}\n",
  "sourcePath": "/Users/will/Dev/blockchain_course/blockchain-developer-bootcamp-final-project/contracts/Raffle.sol",
  "compiler": {
    "name": "solc",
    "version": "0.8.10+commit.fc410830.Emscripten.clang"
  },
  "schemaVersion": "3.4.3",
  "updatedAt": "2021-11-25T00:59:16.152Z",
  "networkType": "ethereum",
  "devdoc": {
    "author": "William P. Grant This randomly chooses a winner, but doesn't currently give the winner anything, and is bottable.",
    "details": "Contract must be funded with LINK to function (use the Rinkeby faucet).",
    "events": {
      "RaffleInProgess(bytes32)": {
        "params": {
          "requestId": "Used internally by the oracle."
        }
      },
      "RaffleWinnerChosen(bytes32,address)": {
        "params": {
          "requestId": "Used internally by the oracle.",
          "winner": "The address of the winner of the raffle."
        }
      }
    },
    "kind": "dev",
    "methods": {
      "claimPrize()": {
        "details": "This is basically a no-op currently but could be used to e.g. mint coveted NFTs."
      },
      "getRaffleWinner()": {
        "returns": {
          "requestId": "The internal oracle id."
        }
      },
      "owner()": {
        "details": "Returns the address of the current owner."
      },
      "renounceOwnership()": {
        "details": "Leaves the contract without owner. It will not be possible to call `onlyOwner` functions anymore. Can only be called by the current owner. NOTE: Renouncing ownership will leave the contract without an owner, thereby removing any functionality that is only available to the owner."
      },
      "transferOwnership(address)": {
        "details": "Transfers ownership of the contract to a new account (`newOwner`). Can only be called by the current owner."
      }
    },
    "stateVariables": {
      "winner": {
        "details": "N.B this is uninitialised until a winner is chosen. Should always be in entrants and entrants_array."
      }
    },
    "title": "A Raffle contract for allocating prizes.",
    "version": 1
  },
  "userdoc": {
    "events": {
      "RaffleInProgess(bytes32)": {
        "notice": "Emitted once the random number has been requested from the external oracle."
      },
      "RaffleWinnerChosen(bytes32,address)": {
        "notice": "Emitted once the random number has been received and used to choose a winner."
      }
    },
    "kind": "user",
    "methods": {
      "claimPrize()": {
        "notice": "Used to distinguish the winner on the frontend."
      },
      "claimTicket()": {
        "notice": "adds the message sender to the list of raffle entrants. Cost only gas."
      },
      "constructor": {
        "notice": "Initialises the contract with hardcoded Rinkeby VRF info."
      },
      "entrantInRaffle()": {
        "notice": "Used to check entry status on the frontend."
      },
      "getRaffleWinner()": {
        "notice": "Requests the random number used to assign a winner, which is then acted on by fulfillRandomness."
      },
      "linkBalance()": {
        "notice": "Utility to check that the contract is funded before it's used."
      },
      "resetRaffle()": {
        "notice": "Reset the raffle, removing all entrants"
      },
      "ticketsSold()": {
        "notice": "Used to display odds to the frontend."
      },
      "withdrawLink()": {
        "notice": "Utility to withdraw spare LINK."
      }
    },
    "version": 1
  }
}